{
	"contracts/Bank/bank.sol": {
		"Bank": {
			"abi": [
				{
					"inputs": [],
					"stateMutability": "nonpayable",
					"type": "constructor"
				},
				{
					"inputs": [],
					"name": "deposit",
					"outputs": [
						{
							"internalType": "bool",
							"name": "",
							"type": "bool"
						}
					],
					"stateMutability": "payable",
					"type": "function"
				},
				{
					"inputs": [],
					"name": "getBankBalance",
					"outputs": [
						{
							"internalType": "uint256",
							"name": "",
							"type": "uint256"
						}
					],
					"stateMutability": "view",
					"type": "function"
				},
				{
					"inputs": [],
					"name": "getbalance",
					"outputs": [
						{
							"internalType": "uint256",
							"name": "",
							"type": "uint256"
						}
					],
					"stateMutability": "view",
					"type": "function"
				},
				{
					"inputs": [],
					"name": "owner",
					"outputs": [
						{
							"internalType": "address",
							"name": "",
							"type": "address"
						}
					],
					"stateMutability": "view",
					"type": "function"
				},
				{
					"inputs": [
						{
							"internalType": "uint256",
							"name": "_amount",
							"type": "uint256"
						}
					],
					"name": "withdraw",
					"outputs": [
						{
							"internalType": "bool",
							"name": "",
							"type": "bool"
						}
					],
					"stateMutability": "payable",
					"type": "function"
				}
			],
			"devdoc": {
				"kind": "dev",
				"methods": {},
				"version": 1
			},
			"evm": {
				"assembly": "    /* \"contracts/Bank/bank.sol\":36:1153  contract Bank {\r... */\n  mstore(0x40, 0x80)\n    /* \"contracts/Bank/bank.sol\":164:229  constructor() public{\r... */\n  callvalue\n  dup1\n  iszero\n  tag_1\n  jumpi\n  0x00\n  dup1\n  revert\ntag_1:\n  pop\n    /* \"contracts/Bank/bank.sol\":207:217  msg.sender */\n  caller\n    /* \"contracts/Bank/bank.sol\":199:204  owner */\n  0x00\n  dup1\n    /* \"contracts/Bank/bank.sol\":199:217  owner = msg.sender */\n  0x0100\n  exp\n  dup2\n  sload\n  dup2\n  0xffffffffffffffffffffffffffffffffffffffff\n  mul\n  not\n  and\n  swap1\n  dup4\n  0xffffffffffffffffffffffffffffffffffffffff\n  and\n  mul\n  or\n  swap1\n  sstore\n  pop\n    /* \"contracts/Bank/bank.sol\":36:1153  contract Bank {\r... */\n  dataSize(sub_0)\n  dup1\n  dataOffset(sub_0)\n  0x00\n  codecopy\n  0x00\n  return\nstop\n\nsub_0: assembly {\n        /* \"contracts/Bank/bank.sol\":36:1153  contract Bank {\r... */\n      mstore(0x40, 0x80)\n      jumpi(tag_1, lt(calldatasize, 0x04))\n      shr(0xe0, calldataload(0x00))\n      dup1\n      0x2e1a7d4d\n      eq\n      tag_2\n      jumpi\n      dup1\n      0x4d9b3d5d\n      eq\n      tag_3\n      jumpi\n      dup1\n      0x7b83b50b\n      eq\n      tag_4\n      jumpi\n      dup1\n      0x8da5cb5b\n      eq\n      tag_5\n      jumpi\n      dup1\n      0xd0e30db0\n      eq\n      tag_6\n      jumpi\n    tag_1:\n      0x00\n      dup1\n      revert\n        /* \"contracts/Bank/bank.sol\":605:900  function withdraw(uint256 _amount) public payable returns (bool) {\r... */\n    tag_2:\n      tag_7\n      0x04\n      dup1\n      calldatasize\n      sub\n      dup2\n      add\n      swap1\n      tag_8\n      swap2\n      swap1\n      tag_9\n      jump\t// in\n    tag_8:\n      tag_10\n      jump\t// in\n    tag_7:\n      mload(0x40)\n      tag_11\n      swap2\n      swap1\n      tag_12\n      jump\t// in\n    tag_11:\n      mload(0x40)\n      dup1\n      swap2\n      sub\n      swap1\n      return\n        /* \"contracts/Bank/bank.sol\":912:1019  function getbalance() public view returns(uint256){\r... */\n    tag_3:\n      callvalue\n      dup1\n      iszero\n      tag_13\n      jumpi\n      0x00\n      dup1\n      revert\n    tag_13:\n      pop\n      tag_14\n      tag_15\n      jump\t// in\n    tag_14:\n      mload(0x40)\n      tag_16\n      swap2\n      swap1\n      tag_17\n      jump\t// in\n    tag_16:\n      mload(0x40)\n      dup1\n      swap2\n      sub\n      swap1\n      return\n        /* \"contracts/Bank/bank.sol\":1031:1150  function getBankBalance() public view onlyOwner returns(uint256){\r... */\n    tag_4:\n      callvalue\n      dup1\n      iszero\n      tag_18\n      jumpi\n      0x00\n      dup1\n      revert\n    tag_18:\n      pop\n      tag_19\n      tag_20\n      jump\t// in\n    tag_19:\n      mload(0x40)\n      tag_21\n      swap2\n      swap1\n      tag_17\n      jump\t// in\n    tag_21:\n      mload(0x40)\n      dup1\n      swap2\n      sub\n      swap1\n      return\n        /* \"contracts/Bank/bank.sol\":63:83  address public owner */\n    tag_5:\n      callvalue\n      dup1\n      iszero\n      tag_22\n      jumpi\n      0x00\n      dup1\n      revert\n    tag_22:\n      pop\n      tag_23\n      tag_24\n      jump\t// in\n    tag_23:\n      mload(0x40)\n      tag_25\n      swap2\n      swap1\n      tag_26\n      jump\t// in\n    tag_25:\n      mload(0x40)\n      dup1\n      swap2\n      sub\n      swap1\n      return\n        /* \"contracts/Bank/bank.sol\":381:593  function deposit() public payable returns(bool) {\r... */\n    tag_6:\n      tag_27\n      tag_28\n      jump\t// in\n    tag_27:\n      mload(0x40)\n      tag_29\n      swap2\n      swap1\n      tag_12\n      jump\t// in\n    tag_29:\n      mload(0x40)\n      dup1\n      swap2\n      sub\n      swap1\n      return\n        /* \"contracts/Bank/bank.sol\":605:900  function withdraw(uint256 _amount) public payable returns (bool) {\r... */\n    tag_10:\n        /* \"contracts/Bank/bank.sol\":664:668  bool */\n      0x00\n        /* \"contracts/Bank/bank.sol\":703:714  userbalance */\n      0x01\n        /* \"contracts/Bank/bank.sol\":703:726  userbalance[msg.sender] */\n      0x00\n        /* \"contracts/Bank/bank.sol\":715:725  msg.sender */\n      caller\n        /* \"contracts/Bank/bank.sol\":703:726  userbalance[msg.sender] */\n      0xffffffffffffffffffffffffffffffffffffffff\n      and\n      0xffffffffffffffffffffffffffffffffffffffff\n      and\n      dup2\n      mstore\n      0x20\n      add\n      swap1\n      dup2\n      mstore\n      0x20\n      add\n      0x00\n      keccak256\n      sload\n        /* \"contracts/Bank/bank.sol\":693:700  _amount */\n      dup3\n        /* \"contracts/Bank/bank.sol\":693:726  _amount <=userbalance[msg.sender] */\n      gt\n      iszero\n        /* \"contracts/Bank/bank.sol\":685:761  require(_amount <=userbalance[msg.sender], 'You dont have sufficient funds') */\n      tag_31\n      jumpi\n      mload(0x40)\n      0x08c379a000000000000000000000000000000000000000000000000000000000\n      dup2\n      mstore\n      0x04\n      add\n      tag_32\n      swap1\n      tag_33\n      jump\t// in\n    tag_32:\n      mload(0x40)\n      dup1\n      swap2\n      sub\n      swap1\n      revert\n    tag_31:\n        /* \"contracts/Bank/bank.sol\":802:809  _amount */\n      dup2\n        /* \"contracts/Bank/bank.sol\":776:787  userbalance */\n      0x01\n        /* \"contracts/Bank/bank.sol\":776:799  userbalance[msg.sender] */\n      0x00\n        /* \"contracts/Bank/bank.sol\":788:798  msg.sender */\n      caller\n        /* \"contracts/Bank/bank.sol\":776:799  userbalance[msg.sender] */\n      0xffffffffffffffffffffffffffffffffffffffff\n      and\n      0xffffffffffffffffffffffffffffffffffffffff\n      and\n      dup2\n      mstore\n      0x20\n      add\n      swap1\n      dup2\n      mstore\n      0x20\n      add\n      0x00\n      keccak256\n      0x00\n        /* \"contracts/Bank/bank.sol\":776:809  userbalance[msg.sender] -=_amount */\n      dup3\n      dup3\n      sload\n      tag_34\n      swap2\n      swap1\n      tag_35\n      jump\t// in\n    tag_34:\n      swap3\n      pop\n      pop\n      dup2\n      swap1\n      sstore\n      pop\n        /* \"contracts/Bank/bank.sol\":833:843  msg.sender */\n      caller\n        /* \"contracts/Bank/bank.sol\":825:853  payable(msg.sender).transfer */\n      0xffffffffffffffffffffffffffffffffffffffff\n      and\n        /* \"contracts/Bank/bank.sol\":825:862  payable(msg.sender).transfer(_amount) */\n      0x08fc\n        /* \"contracts/Bank/bank.sol\":854:861  _amount */\n      dup4\n        /* \"contracts/Bank/bank.sol\":825:862  payable(msg.sender).transfer(_amount) */\n      swap1\n      dup2\n      iszero\n      mul\n      swap1\n      mload(0x40)\n      0x00\n      mload(0x40)\n      dup1\n      dup4\n      sub\n      dup2\n      dup6\n      dup9\n      dup9\n      call\n      swap4\n      pop\n      pop\n      pop\n      pop\n      iszero\n      dup1\n      iszero\n      tag_37\n      jumpi\n      returndatasize\n      0x00\n      dup1\n      returndatacopy\n      revert(0x00, returndatasize)\n    tag_37:\n      pop\n        /* \"contracts/Bank/bank.sol\":884:888  true */\n      0x01\n        /* \"contracts/Bank/bank.sol\":877:888  return true */\n      swap1\n      pop\n        /* \"contracts/Bank/bank.sol\":605:900  function withdraw(uint256 _amount) public payable returns (bool) {\r... */\n      swap2\n      swap1\n      pop\n      jump\t// out\n        /* \"contracts/Bank/bank.sol\":912:1019  function getbalance() public view returns(uint256){\r... */\n    tag_15:\n        /* \"contracts/Bank/bank.sol\":954:961  uint256 */\n      0x00\n        /* \"contracts/Bank/bank.sol\":984:995  userbalance */\n      0x01\n        /* \"contracts/Bank/bank.sol\":984:1007  userbalance[msg.sender] */\n      0x00\n        /* \"contracts/Bank/bank.sol\":996:1006  msg.sender */\n      caller\n        /* \"contracts/Bank/bank.sol\":984:1007  userbalance[msg.sender] */\n      0xffffffffffffffffffffffffffffffffffffffff\n      and\n      0xffffffffffffffffffffffffffffffffffffffff\n      and\n      dup2\n      mstore\n      0x20\n      add\n      swap1\n      dup2\n      mstore\n      0x20\n      add\n      0x00\n      keccak256\n      sload\n        /* \"contracts/Bank/bank.sol\":977:1007  return userbalance[msg.sender] */\n      swap1\n      pop\n        /* \"contracts/Bank/bank.sol\":912:1019  function getbalance() public view returns(uint256){\r... */\n      swap1\n      jump\t// out\n        /* \"contracts/Bank/bank.sol\":1031:1150  function getBankBalance() public view onlyOwner returns(uint256){\r... */\n    tag_20:\n        /* \"contracts/Bank/bank.sol\":1087:1094  uint256 */\n      0x00\n        /* \"contracts/Bank/bank.sol\":297:302  owner */\n      dup1\n      0x00\n      swap1\n      sload\n      swap1\n      0x0100\n      exp\n      swap1\n      div\n      0xffffffffffffffffffffffffffffffffffffffff\n      and\n        /* \"contracts/Bank/bank.sol\":285:302  msg.sender==owner */\n      0xffffffffffffffffffffffffffffffffffffffff\n      and\n        /* \"contracts/Bank/bank.sol\":285:295  msg.sender */\n      caller\n        /* \"contracts/Bank/bank.sol\":285:302  msg.sender==owner */\n      0xffffffffffffffffffffffffffffffffffffffff\n      and\n      eq\n        /* \"contracts/Bank/bank.sol\":276:345  require (msg.sender==owner, 'You are not the owner of this contract') */\n      tag_40\n      jumpi\n      mload(0x40)\n      0x08c379a000000000000000000000000000000000000000000000000000000000\n      dup2\n      mstore\n      0x04\n      add\n      tag_41\n      swap1\n      tag_42\n      jump\t// in\n    tag_41:\n      mload(0x40)\n      dup1\n      swap2\n      sub\n      swap1\n      revert\n    tag_40:\n        /* \"contracts/Bank/bank.sol\":1117:1138  address(this).balance */\n      selfbalance\n        /* \"contracts/Bank/bank.sol\":1110:1138  return address(this).balance */\n      swap1\n      pop\n        /* \"contracts/Bank/bank.sol\":1031:1150  function getBankBalance() public view onlyOwner returns(uint256){\r... */\n      swap1\n      jump\t// out\n        /* \"contracts/Bank/bank.sol\":63:83  address public owner */\n    tag_24:\n      0x00\n      dup1\n      sload\n      swap1\n      0x0100\n      exp\n      swap1\n      div\n      0xffffffffffffffffffffffffffffffffffffffff\n      and\n      dup2\n      jump\t// out\n        /* \"contracts/Bank/bank.sol\":381:593  function deposit() public payable returns(bool) {\r... */\n    tag_28:\n        /* \"contracts/Bank/bank.sol\":423:427  bool */\n      0x00\n        /* \"contracts/Bank/bank.sol\":464:470  10 wei */\n      0x0a\n        /* \"contracts/Bank/bank.sol\":452:461  msg.value */\n      callvalue\n        /* \"contracts/Bank/bank.sol\":452:470  msg.value > 10 wei */\n      gt\n        /* \"contracts/Bank/bank.sol\":444:505  require(msg.value > 10 wei, 'Please deposit at least 10 wei') */\n      tag_45\n      jumpi\n      mload(0x40)\n      0x08c379a000000000000000000000000000000000000000000000000000000000\n      dup2\n      mstore\n      0x04\n      add\n      tag_46\n      swap1\n      tag_47\n      jump\t// in\n    tag_46:\n      mload(0x40)\n      dup1\n      swap2\n      sub\n      swap1\n      revert\n    tag_45:\n        /* \"contracts/Bank/bank.sol\":546:555  msg.value */\n      callvalue\n        /* \"contracts/Bank/bank.sol\":520:531  userbalance */\n      0x01\n        /* \"contracts/Bank/bank.sol\":520:543  userbalance[msg.sender] */\n      0x00\n        /* \"contracts/Bank/bank.sol\":532:542  msg.sender */\n      caller\n        /* \"contracts/Bank/bank.sol\":520:543  userbalance[msg.sender] */\n      0xffffffffffffffffffffffffffffffffffffffff\n      and\n      0xffffffffffffffffffffffffffffffffffffffff\n      and\n      dup2\n      mstore\n      0x20\n      add\n      swap1\n      dup2\n      mstore\n      0x20\n      add\n      0x00\n      keccak256\n      0x00\n        /* \"contracts/Bank/bank.sol\":520:555  userbalance[msg.sender] +=msg.value */\n      dup3\n      dup3\n      sload\n      tag_48\n      swap2\n      swap1\n      tag_49\n      jump\t// in\n    tag_48:\n      swap3\n      pop\n      pop\n      dup2\n      swap1\n      sstore\n      pop\n        /* \"contracts/Bank/bank.sol\":577:581  true */\n      0x01\n        /* \"contracts/Bank/bank.sol\":570:581  return true */\n      swap1\n      pop\n        /* \"contracts/Bank/bank.sol\":381:593  function deposit() public payable returns(bool) {\r... */\n      swap1\n      jump\t// out\n        /* \"#utility.yul\":7:146   */\n    tag_51:\n        /* \"#utility.yul\":53:58   */\n      0x00\n        /* \"#utility.yul\":91:97   */\n      dup2\n        /* \"#utility.yul\":78:98   */\n      calldataload\n        /* \"#utility.yul\":69:98   */\n      swap1\n      pop\n        /* \"#utility.yul\":107:140   */\n      tag_53\n        /* \"#utility.yul\":134:139   */\n      dup2\n        /* \"#utility.yul\":107:140   */\n      tag_54\n      jump\t// in\n    tag_53:\n        /* \"#utility.yul\":7:146   */\n      swap3\n      swap2\n      pop\n      pop\n      jump\t// out\n        /* \"#utility.yul\":152:481   */\n    tag_9:\n        /* \"#utility.yul\":211:217   */\n      0x00\n        /* \"#utility.yul\":260:262   */\n      0x20\n        /* \"#utility.yul\":248:257   */\n      dup3\n        /* \"#utility.yul\":239:246   */\n      dup5\n        /* \"#utility.yul\":235:258   */\n      sub\n        /* \"#utility.yul\":231:263   */\n      slt\n        /* \"#utility.yul\":228:347   */\n      iszero\n      tag_56\n      jumpi\n        /* \"#utility.yul\":266:345   */\n      tag_57\n      tag_58\n      jump\t// in\n    tag_57:\n        /* \"#utility.yul\":228:347   */\n    tag_56:\n        /* \"#utility.yul\":386:387   */\n      0x00\n        /* \"#utility.yul\":411:464   */\n      tag_59\n        /* \"#utility.yul\":456:463   */\n      dup5\n        /* \"#utility.yul\":447:453   */\n      dup3\n        /* \"#utility.yul\":436:445   */\n      dup6\n        /* \"#utility.yul\":432:454   */\n      add\n        /* \"#utility.yul\":411:464   */\n      tag_51\n      jump\t// in\n    tag_59:\n        /* \"#utility.yul\":401:464   */\n      swap2\n      pop\n        /* \"#utility.yul\":357:474   */\n      pop\n        /* \"#utility.yul\":152:481   */\n      swap3\n      swap2\n      pop\n      pop\n      jump\t// out\n        /* \"#utility.yul\":487:605   */\n    tag_60:\n        /* \"#utility.yul\":574:598   */\n      tag_62\n        /* \"#utility.yul\":592:597   */\n      dup2\n        /* \"#utility.yul\":574:598   */\n      tag_63\n      jump\t// in\n    tag_62:\n        /* \"#utility.yul\":569:572   */\n      dup3\n        /* \"#utility.yul\":562:599   */\n      mstore\n        /* \"#utility.yul\":487:605   */\n      pop\n      pop\n      jump\t// out\n        /* \"#utility.yul\":611:720   */\n    tag_64:\n        /* \"#utility.yul\":692:713   */\n      tag_66\n        /* \"#utility.yul\":707:712   */\n      dup2\n        /* \"#utility.yul\":692:713   */\n      tag_67\n      jump\t// in\n    tag_66:\n        /* \"#utility.yul\":687:690   */\n      dup3\n        /* \"#utility.yul\":680:714   */\n      mstore\n        /* \"#utility.yul\":611:720   */\n      pop\n      pop\n      jump\t// out\n        /* \"#utility.yul\":726:1092   */\n    tag_68:\n        /* \"#utility.yul\":868:871   */\n      0x00\n        /* \"#utility.yul\":889:956   */\n      tag_70\n        /* \"#utility.yul\":953:955   */\n      0x1e\n        /* \"#utility.yul\":948:951   */\n      dup4\n        /* \"#utility.yul\":889:956   */\n      tag_71\n      jump\t// in\n    tag_70:\n        /* \"#utility.yul\":882:956   */\n      swap2\n      pop\n        /* \"#utility.yul\":965:1058   */\n      tag_72\n        /* \"#utility.yul\":1054:1057   */\n      dup3\n        /* \"#utility.yul\":965:1058   */\n      tag_73\n      jump\t// in\n    tag_72:\n        /* \"#utility.yul\":1083:1085   */\n      0x20\n        /* \"#utility.yul\":1078:1081   */\n      dup3\n        /* \"#utility.yul\":1074:1086   */\n      add\n        /* \"#utility.yul\":1067:1086   */\n      swap1\n      pop\n        /* \"#utility.yul\":726:1092   */\n      swap2\n      swap1\n      pop\n      jump\t// out\n        /* \"#utility.yul\":1098:1464   */\n    tag_74:\n        /* \"#utility.yul\":1240:1243   */\n      0x00\n        /* \"#utility.yul\":1261:1328   */\n      tag_76\n        /* \"#utility.yul\":1325:1327   */\n      0x26\n        /* \"#utility.yul\":1320:1323   */\n      dup4\n        /* \"#utility.yul\":1261:1328   */\n      tag_71\n      jump\t// in\n    tag_76:\n        /* \"#utility.yul\":1254:1328   */\n      swap2\n      pop\n        /* \"#utility.yul\":1337:1430   */\n      tag_77\n        /* \"#utility.yul\":1426:1429   */\n      dup3\n        /* \"#utility.yul\":1337:1430   */\n      tag_78\n      jump\t// in\n    tag_77:\n        /* \"#utility.yul\":1455:1457   */\n      0x40\n        /* \"#utility.yul\":1450:1453   */\n      dup3\n        /* \"#utility.yul\":1446:1458   */\n      add\n        /* \"#utility.yul\":1439:1458   */\n      swap1\n      pop\n        /* \"#utility.yul\":1098:1464   */\n      swap2\n      swap1\n      pop\n      jump\t// out\n        /* \"#utility.yul\":1470:1836   */\n    tag_79:\n        /* \"#utility.yul\":1612:1615   */\n      0x00\n        /* \"#utility.yul\":1633:1700   */\n      tag_81\n        /* \"#utility.yul\":1697:1699   */\n      0x1e\n        /* \"#utility.yul\":1692:1695   */\n      dup4\n        /* \"#utility.yul\":1633:1700   */\n      tag_71\n      jump\t// in\n    tag_81:\n        /* \"#utility.yul\":1626:1700   */\n      swap2\n      pop\n        /* \"#utility.yul\":1709:1802   */\n      tag_82\n        /* \"#utility.yul\":1798:1801   */\n      dup3\n        /* \"#utility.yul\":1709:1802   */\n      tag_83\n      jump\t// in\n    tag_82:\n        /* \"#utility.yul\":1827:1829   */\n      0x20\n        /* \"#utility.yul\":1822:1825   */\n      dup3\n        /* \"#utility.yul\":1818:1830   */\n      add\n        /* \"#utility.yul\":1811:1830   */\n      swap1\n      pop\n        /* \"#utility.yul\":1470:1836   */\n      swap2\n      swap1\n      pop\n      jump\t// out\n        /* \"#utility.yul\":1842:1960   */\n    tag_84:\n        /* \"#utility.yul\":1929:1953   */\n      tag_86\n        /* \"#utility.yul\":1947:1952   */\n      dup2\n        /* \"#utility.yul\":1929:1953   */\n      tag_87\n      jump\t// in\n    tag_86:\n        /* \"#utility.yul\":1924:1927   */\n      dup3\n        /* \"#utility.yul\":1917:1954   */\n      mstore\n        /* \"#utility.yul\":1842:1960   */\n      pop\n      pop\n      jump\t// out\n        /* \"#utility.yul\":1966:2188   */\n    tag_26:\n        /* \"#utility.yul\":2059:2063   */\n      0x00\n        /* \"#utility.yul\":2097:2099   */\n      0x20\n        /* \"#utility.yul\":2086:2095   */\n      dup3\n        /* \"#utility.yul\":2082:2100   */\n      add\n        /* \"#utility.yul\":2074:2100   */\n      swap1\n      pop\n        /* \"#utility.yul\":2110:2181   */\n      tag_89\n        /* \"#utility.yul\":2178:2179   */\n      0x00\n        /* \"#utility.yul\":2167:2176   */\n      dup4\n        /* \"#utility.yul\":2163:2180   */\n      add\n        /* \"#utility.yul\":2154:2160   */\n      dup5\n        /* \"#utility.yul\":2110:2181   */\n      tag_60\n      jump\t// in\n    tag_89:\n        /* \"#utility.yul\":1966:2188   */\n      swap3\n      swap2\n      pop\n      pop\n      jump\t// out\n        /* \"#utility.yul\":2194:2404   */\n    tag_12:\n        /* \"#utility.yul\":2281:2285   */\n      0x00\n        /* \"#utility.yul\":2319:2321   */\n      0x20\n        /* \"#utility.yul\":2308:2317   */\n      dup3\n        /* \"#utility.yul\":2304:2322   */\n      add\n        /* \"#utility.yul\":2296:2322   */\n      swap1\n      pop\n        /* \"#utility.yul\":2332:2397   */\n      tag_91\n        /* \"#utility.yul\":2394:2395   */\n      0x00\n        /* \"#utility.yul\":2383:2392   */\n      dup4\n        /* \"#utility.yul\":2379:2396   */\n      add\n        /* \"#utility.yul\":2370:2376   */\n      dup5\n        /* \"#utility.yul\":2332:2397   */\n      tag_64\n      jump\t// in\n    tag_91:\n        /* \"#utility.yul\":2194:2404   */\n      swap3\n      swap2\n      pop\n      pop\n      jump\t// out\n        /* \"#utility.yul\":2410:2829   */\n    tag_33:\n        /* \"#utility.yul\":2576:2580   */\n      0x00\n        /* \"#utility.yul\":2614:2616   */\n      0x20\n        /* \"#utility.yul\":2603:2612   */\n      dup3\n        /* \"#utility.yul\":2599:2617   */\n      add\n        /* \"#utility.yul\":2591:2617   */\n      swap1\n      pop\n        /* \"#utility.yul\":2663:2672   */\n      dup2\n        /* \"#utility.yul\":2657:2661   */\n      dup2\n        /* \"#utility.yul\":2653:2673   */\n      sub\n        /* \"#utility.yul\":2649:2650   */\n      0x00\n        /* \"#utility.yul\":2638:2647   */\n      dup4\n        /* \"#utility.yul\":2634:2651   */\n      add\n        /* \"#utility.yul\":2627:2674   */\n      mstore\n        /* \"#utility.yul\":2691:2822   */\n      tag_93\n        /* \"#utility.yul\":2817:2821   */\n      dup2\n        /* \"#utility.yul\":2691:2822   */\n      tag_68\n      jump\t// in\n    tag_93:\n        /* \"#utility.yul\":2683:2822   */\n      swap1\n      pop\n        /* \"#utility.yul\":2410:2829   */\n      swap2\n      swap1\n      pop\n      jump\t// out\n        /* \"#utility.yul\":2835:3254   */\n    tag_42:\n        /* \"#utility.yul\":3001:3005   */\n      0x00\n        /* \"#utility.yul\":3039:3041   */\n      0x20\n        /* \"#utility.yul\":3028:3037   */\n      dup3\n        /* \"#utility.yul\":3024:3042   */\n      add\n        /* \"#utility.yul\":3016:3042   */\n      swap1\n      pop\n        /* \"#utility.yul\":3088:3097   */\n      dup2\n        /* \"#utility.yul\":3082:3086   */\n      dup2\n        /* \"#utility.yul\":3078:3098   */\n      sub\n        /* \"#utility.yul\":3074:3075   */\n      0x00\n        /* \"#utility.yul\":3063:3072   */\n      dup4\n        /* \"#utility.yul\":3059:3076   */\n      add\n        /* \"#utility.yul\":3052:3099   */\n      mstore\n        /* \"#utility.yul\":3116:3247   */\n      tag_95\n        /* \"#utility.yul\":3242:3246   */\n      dup2\n        /* \"#utility.yul\":3116:3247   */\n      tag_74\n      jump\t// in\n    tag_95:\n        /* \"#utility.yul\":3108:3247   */\n      swap1\n      pop\n        /* \"#utility.yul\":2835:3254   */\n      swap2\n      swap1\n      pop\n      jump\t// out\n        /* \"#utility.yul\":3260:3679   */\n    tag_47:\n        /* \"#utility.yul\":3426:3430   */\n      0x00\n        /* \"#utility.yul\":3464:3466   */\n      0x20\n        /* \"#utility.yul\":3453:3462   */\n      dup3\n        /* \"#utility.yul\":3449:3467   */\n      add\n        /* \"#utility.yul\":3441:3467   */\n      swap1\n      pop\n        /* \"#utility.yul\":3513:3522   */\n      dup2\n        /* \"#utility.yul\":3507:3511   */\n      dup2\n        /* \"#utility.yul\":3503:3523   */\n      sub\n        /* \"#utility.yul\":3499:3500   */\n      0x00\n        /* \"#utility.yul\":3488:3497   */\n      dup4\n        /* \"#utility.yul\":3484:3501   */\n      add\n        /* \"#utility.yul\":3477:3524   */\n      mstore\n        /* \"#utility.yul\":3541:3672   */\n      tag_97\n        /* \"#utility.yul\":3667:3671   */\n      dup2\n        /* \"#utility.yul\":3541:3672   */\n      tag_79\n      jump\t// in\n    tag_97:\n        /* \"#utility.yul\":3533:3672   */\n      swap1\n      pop\n        /* \"#utility.yul\":3260:3679   */\n      swap2\n      swap1\n      pop\n      jump\t// out\n        /* \"#utility.yul\":3685:3907   */\n    tag_17:\n        /* \"#utility.yul\":3778:3782   */\n      0x00\n        /* \"#utility.yul\":3816:3818   */\n      0x20\n        /* \"#utility.yul\":3805:3814   */\n      dup3\n        /* \"#utility.yul\":3801:3819   */\n      add\n        /* \"#utility.yul\":3793:3819   */\n      swap1\n      pop\n        /* \"#utility.yul\":3829:3900   */\n      tag_99\n        /* \"#utility.yul\":3897:3898   */\n      0x00\n        /* \"#utility.yul\":3886:3895   */\n      dup4\n        /* \"#utility.yul\":3882:3899   */\n      add\n        /* \"#utility.yul\":3873:3879   */\n      dup5\n        /* \"#utility.yul\":3829:3900   */\n      tag_84\n      jump\t// in\n    tag_99:\n        /* \"#utility.yul\":3685:3907   */\n      swap3\n      swap2\n      pop\n      pop\n      jump\t// out\n        /* \"#utility.yul\":3994:4163   */\n    tag_71:\n        /* \"#utility.yul\":4078:4089   */\n      0x00\n        /* \"#utility.yul\":4112:4118   */\n      dup3\n        /* \"#utility.yul\":4107:4110   */\n      dup3\n        /* \"#utility.yul\":4100:4119   */\n      mstore\n        /* \"#utility.yul\":4152:4156   */\n      0x20\n        /* \"#utility.yul\":4147:4150   */\n      dup3\n        /* \"#utility.yul\":4143:4157   */\n      add\n        /* \"#utility.yul\":4128:4157   */\n      swap1\n      pop\n        /* \"#utility.yul\":3994:4163   */\n      swap3\n      swap2\n      pop\n      pop\n      jump\t// out\n        /* \"#utility.yul\":4169:4474   */\n    tag_49:\n        /* \"#utility.yul\":4209:4212   */\n      0x00\n        /* \"#utility.yul\":4228:4248   */\n      tag_104\n        /* \"#utility.yul\":4246:4247   */\n      dup3\n        /* \"#utility.yul\":4228:4248   */\n      tag_87\n      jump\t// in\n    tag_104:\n        /* \"#utility.yul\":4223:4248   */\n      swap2\n      pop\n        /* \"#utility.yul\":4262:4282   */\n      tag_105\n        /* \"#utility.yul\":4280:4281   */\n      dup4\n        /* \"#utility.yul\":4262:4282   */\n      tag_87\n      jump\t// in\n    tag_105:\n        /* \"#utility.yul\":4257:4282   */\n      swap3\n      pop\n        /* \"#utility.yul\":4416:4417   */\n      dup3\n        /* \"#utility.yul\":4348:4414   */\n      0xffffffffffffffffffffffffffffffffffffffffffffffffffffffffffffffff\n        /* \"#utility.yul\":4344:4418   */\n      sub\n        /* \"#utility.yul\":4341:4342   */\n      dup3\n        /* \"#utility.yul\":4338:4419   */\n      gt\n        /* \"#utility.yul\":4335:4442   */\n      iszero\n      tag_106\n      jumpi\n        /* \"#utility.yul\":4422:4440   */\n      tag_107\n      tag_108\n      jump\t// in\n    tag_107:\n        /* \"#utility.yul\":4335:4442   */\n    tag_106:\n        /* \"#utility.yul\":4466:4467   */\n      dup3\n        /* \"#utility.yul\":4463:4464   */\n      dup3\n        /* \"#utility.yul\":4459:4468   */\n      add\n        /* \"#utility.yul\":4452:4468   */\n      swap1\n      pop\n        /* \"#utility.yul\":4169:4474   */\n      swap3\n      swap2\n      pop\n      pop\n      jump\t// out\n        /* \"#utility.yul\":4480:4671   */\n    tag_35:\n        /* \"#utility.yul\":4520:4524   */\n      0x00\n        /* \"#utility.yul\":4540:4560   */\n      tag_110\n        /* \"#utility.yul\":4558:4559   */\n      dup3\n        /* \"#utility.yul\":4540:4560   */\n      tag_87\n      jump\t// in\n    tag_110:\n        /* \"#utility.yul\":4535:4560   */\n      swap2\n      pop\n        /* \"#utility.yul\":4574:4594   */\n      tag_111\n        /* \"#utility.yul\":4592:4593   */\n      dup4\n        /* \"#utility.yul\":4574:4594   */\n      tag_87\n      jump\t// in\n    tag_111:\n        /* \"#utility.yul\":4569:4594   */\n      swap3\n      pop\n        /* \"#utility.yul\":4613:4614   */\n      dup3\n        /* \"#utility.yul\":4610:4611   */\n      dup3\n        /* \"#utility.yul\":4607:4615   */\n      lt\n        /* \"#utility.yul\":4604:4638   */\n      iszero\n      tag_112\n      jumpi\n        /* \"#utility.yul\":4618:4636   */\n      tag_113\n      tag_108\n      jump\t// in\n    tag_113:\n        /* \"#utility.yul\":4604:4638   */\n    tag_112:\n        /* \"#utility.yul\":4663:4664   */\n      dup3\n        /* \"#utility.yul\":4660:4661   */\n      dup3\n        /* \"#utility.yul\":4656:4665   */\n      sub\n        /* \"#utility.yul\":4648:4665   */\n      swap1\n      pop\n        /* \"#utility.yul\":4480:4671   */\n      swap3\n      swap2\n      pop\n      pop\n      jump\t// out\n        /* \"#utility.yul\":4677:4773   */\n    tag_63:\n        /* \"#utility.yul\":4714:4721   */\n      0x00\n        /* \"#utility.yul\":4743:4767   */\n      tag_115\n        /* \"#utility.yul\":4761:4766   */\n      dup3\n        /* \"#utility.yul\":4743:4767   */\n      tag_116\n      jump\t// in\n    tag_115:\n        /* \"#utility.yul\":4732:4767   */\n      swap1\n      pop\n        /* \"#utility.yul\":4677:4773   */\n      swap2\n      swap1\n      pop\n      jump\t// out\n        /* \"#utility.yul\":4779:4869   */\n    tag_67:\n        /* \"#utility.yul\":4813:4820   */\n      0x00\n        /* \"#utility.yul\":4856:4861   */\n      dup2\n        /* \"#utility.yul\":4849:4862   */\n      iszero\n        /* \"#utility.yul\":4842:4863   */\n      iszero\n        /* \"#utility.yul\":4831:4863   */\n      swap1\n      pop\n        /* \"#utility.yul\":4779:4869   */\n      swap2\n      swap1\n      pop\n      jump\t// out\n        /* \"#utility.yul\":4875:5001   */\n    tag_116:\n        /* \"#utility.yul\":4912:4919   */\n      0x00\n        /* \"#utility.yul\":4952:4994   */\n      0xffffffffffffffffffffffffffffffffffffffff\n        /* \"#utility.yul\":4945:4950   */\n      dup3\n        /* \"#utility.yul\":4941:4995   */\n      and\n        /* \"#utility.yul\":4930:4995   */\n      swap1\n      pop\n        /* \"#utility.yul\":4875:5001   */\n      swap2\n      swap1\n      pop\n      jump\t// out\n        /* \"#utility.yul\":5007:5084   */\n    tag_87:\n        /* \"#utility.yul\":5044:5051   */\n      0x00\n        /* \"#utility.yul\":5073:5078   */\n      dup2\n        /* \"#utility.yul\":5062:5078   */\n      swap1\n      pop\n        /* \"#utility.yul\":5007:5084   */\n      swap2\n      swap1\n      pop\n      jump\t// out\n        /* \"#utility.yul\":5090:5270   */\n    tag_108:\n        /* \"#utility.yul\":5138:5215   */\n      0x4e487b7100000000000000000000000000000000000000000000000000000000\n        /* \"#utility.yul\":5135:5136   */\n      0x00\n        /* \"#utility.yul\":5128:5216   */\n      mstore\n        /* \"#utility.yul\":5235:5239   */\n      0x11\n        /* \"#utility.yul\":5232:5233   */\n      0x04\n        /* \"#utility.yul\":5225:5240   */\n      mstore\n        /* \"#utility.yul\":5259:5263   */\n      0x24\n        /* \"#utility.yul\":5256:5257   */\n      0x00\n        /* \"#utility.yul\":5249:5264   */\n      revert\n        /* \"#utility.yul\":5399:5516   */\n    tag_58:\n        /* \"#utility.yul\":5508:5509   */\n      0x00\n        /* \"#utility.yul\":5505:5506   */\n      dup1\n        /* \"#utility.yul\":5498:5510   */\n      revert\n        /* \"#utility.yul\":5522:5702   */\n    tag_73:\n        /* \"#utility.yul\":5662:5694   */\n      0x596f7520646f6e7420686176652073756666696369656e742066756e64730000\n        /* \"#utility.yul\":5658:5659   */\n      0x00\n        /* \"#utility.yul\":5650:5656   */\n      dup3\n        /* \"#utility.yul\":5646:5660   */\n      add\n        /* \"#utility.yul\":5639:5695   */\n      mstore\n        /* \"#utility.yul\":5522:5702   */\n      pop\n      jump\t// out\n        /* \"#utility.yul\":5708:5933   */\n    tag_78:\n        /* \"#utility.yul\":5848:5882   */\n      0x596f7520617265206e6f7420746865206f776e6572206f66207468697320636f\n        /* \"#utility.yul\":5844:5845   */\n      0x00\n        /* \"#utility.yul\":5836:5842   */\n      dup3\n        /* \"#utility.yul\":5832:5846   */\n      add\n        /* \"#utility.yul\":5825:5883   */\n      mstore\n        /* \"#utility.yul\":5917:5925   */\n      0x6e74726163740000000000000000000000000000000000000000000000000000\n        /* \"#utility.yul\":5912:5914   */\n      0x20\n        /* \"#utility.yul\":5904:5910   */\n      dup3\n        /* \"#utility.yul\":5900:5915   */\n      add\n        /* \"#utility.yul\":5893:5926   */\n      mstore\n        /* \"#utility.yul\":5708:5933   */\n      pop\n      jump\t// out\n        /* \"#utility.yul\":5939:6119   */\n    tag_83:\n        /* \"#utility.yul\":6079:6111   */\n      0x506c65617365206465706f736974206174206c65617374203130207765690000\n        /* \"#utility.yul\":6075:6076   */\n      0x00\n        /* \"#utility.yul\":6067:6073   */\n      dup3\n        /* \"#utility.yul\":6063:6077   */\n      add\n        /* \"#utility.yul\":6056:6112   */\n      mstore\n        /* \"#utility.yul\":5939:6119   */\n      pop\n      jump\t// out\n        /* \"#utility.yul\":6125:6247   */\n    tag_54:\n        /* \"#utility.yul\":6198:6222   */\n      tag_128\n        /* \"#utility.yul\":6216:6221   */\n      dup2\n        /* \"#utility.yul\":6198:6222   */\n      tag_87\n      jump\t// in\n    tag_128:\n        /* \"#utility.yul\":6191:6196   */\n      dup2\n        /* \"#utility.yul\":6188:6223   */\n      eq\n        /* \"#utility.yul\":6178:6241   */\n      tag_129\n      jumpi\n        /* \"#utility.yul\":6237:6238   */\n      0x00\n        /* \"#utility.yul\":6234:6235   */\n      dup1\n        /* \"#utility.yul\":6227:6239   */\n      revert\n        /* \"#utility.yul\":6178:6241   */\n    tag_129:\n        /* \"#utility.yul\":6125:6247   */\n      pop\n      jump\t// out\n\n    auxdata: 0xa2646970667358221220ca766183795e9b5d962b227e90c94d653a2e0107d092468ffb4695efe5ce033e64736f6c63430008070033\n}\n",
				"bytecode": {
					"linkReferences": {},
					"object": "608060405234801561001057600080fd5b50336000806101000a81548173ffffffffffffffffffffffffffffffffffffffff021916908373ffffffffffffffffffffffffffffffffffffffff16021790555061077a806100606000396000f3fe60806040526004361061004a5760003560e01c80632e1a7d4d1461004f5780634d9b3d5d1461007f5780637b83b50b146100aa5780638da5cb5b146100d5578063d0e30db014610100575b600080fd5b61006960048036038101906100649190610401565b61011e565b60405161007691906104df565b60405180910390f35b34801561008b57600080fd5b50610094610248565b6040516100a1919061055a565b60405180910390f35b3480156100b657600080fd5b506100bf61028f565b6040516100cc919061055a565b60405180910390f35b3480156100e157600080fd5b506100ea610326565b6040516100f791906104c4565b60405180910390f35b61010861034a565b60405161011591906104df565b60405180910390f35b6000600160003373ffffffffffffffffffffffffffffffffffffffff1673ffffffffffffffffffffffffffffffffffffffff168152602001908152602001600020548211156101a2576040517f08c379a0000000000000000000000000000000000000000000000000000000008152600401610199906104fa565b60405180910390fd5b81600160003373ffffffffffffffffffffffffffffffffffffffff1673ffffffffffffffffffffffffffffffffffffffff16815260200190815260200160002060008282546101f191906105dc565b925050819055503373ffffffffffffffffffffffffffffffffffffffff166108fc839081150290604051600060405180830381858888f1935050505015801561023e573d6000803e3d6000fd5b5060019050919050565b6000600160003373ffffffffffffffffffffffffffffffffffffffff1673ffffffffffffffffffffffffffffffffffffffff16815260200190815260200160002054905090565b60008060009054906101000a900473ffffffffffffffffffffffffffffffffffffffff1673ffffffffffffffffffffffffffffffffffffffff163373ffffffffffffffffffffffffffffffffffffffff1614610320576040517f08c379a00000000000000000000000000000000000000000000000000000000081526004016103179061051a565b60405180910390fd5b47905090565b60008054906101000a900473ffffffffffffffffffffffffffffffffffffffff1681565b6000600a341161038f576040517f08c379a00000000000000000000000000000000000000000000000000000000081526004016103869061053a565b60405180910390fd5b34600160003373ffffffffffffffffffffffffffffffffffffffff1673ffffffffffffffffffffffffffffffffffffffff16815260200190815260200160002060008282546103de9190610586565b925050819055506001905090565b6000813590506103fb8161072d565b92915050565b60006020828403121561041757610416610687565b5b6000610425848285016103ec565b91505092915050565b61043781610610565b82525050565b61044681610622565b82525050565b6000610459601e83610575565b91506104648261068c565b602082019050919050565b600061047c602683610575565b9150610487826106b5565b604082019050919050565b600061049f601e83610575565b91506104aa82610704565b602082019050919050565b6104be8161064e565b82525050565b60006020820190506104d9600083018461042e565b92915050565b60006020820190506104f4600083018461043d565b92915050565b600060208201905081810360008301526105138161044c565b9050919050565b600060208201905081810360008301526105338161046f565b9050919050565b6000602082019050818103600083015261055381610492565b9050919050565b600060208201905061056f60008301846104b5565b92915050565b600082825260208201905092915050565b60006105918261064e565b915061059c8361064e565b9250827fffffffffffffffffffffffffffffffffffffffffffffffffffffffffffffffff038211156105d1576105d0610658565b5b828201905092915050565b60006105e78261064e565b91506105f28361064e565b92508282101561060557610604610658565b5b828203905092915050565b600061061b8261062e565b9050919050565b60008115159050919050565b600073ffffffffffffffffffffffffffffffffffffffff82169050919050565b6000819050919050565b7f4e487b7100000000000000000000000000000000000000000000000000000000600052601160045260246000fd5b600080fd5b7f596f7520646f6e7420686176652073756666696369656e742066756e64730000600082015250565b7f596f7520617265206e6f7420746865206f776e6572206f66207468697320636f60008201527f6e74726163740000000000000000000000000000000000000000000000000000602082015250565b7f506c65617365206465706f736974206174206c65617374203130207765690000600082015250565b6107368161064e565b811461074157600080fd5b5056fea2646970667358221220ca766183795e9b5d962b227e90c94d653a2e0107d092468ffb4695efe5ce033e64736f6c63430008070033",
					"opcodes": "PUSH1 0x80 PUSH1 0x40 MSTORE CALLVALUE DUP1 ISZERO PUSH2 0x10 JUMPI PUSH1 0x0 DUP1 REVERT JUMPDEST POP CALLER PUSH1 0x0 DUP1 PUSH2 0x100 EXP DUP2 SLOAD DUP2 PUSH20 0xFFFFFFFFFFFFFFFFFFFFFFFFFFFFFFFFFFFFFFFF MUL NOT AND SWAP1 DUP4 PUSH20 0xFFFFFFFFFFFFFFFFFFFFFFFFFFFFFFFFFFFFFFFF AND MUL OR SWAP1 SSTORE POP PUSH2 0x77A DUP1 PUSH2 0x60 PUSH1 0x0 CODECOPY PUSH1 0x0 RETURN INVALID PUSH1 0x80 PUSH1 0x40 MSTORE PUSH1 0x4 CALLDATASIZE LT PUSH2 0x4A JUMPI PUSH1 0x0 CALLDATALOAD PUSH1 0xE0 SHR DUP1 PUSH4 0x2E1A7D4D EQ PUSH2 0x4F JUMPI DUP1 PUSH4 0x4D9B3D5D EQ PUSH2 0x7F JUMPI DUP1 PUSH4 0x7B83B50B EQ PUSH2 0xAA JUMPI DUP1 PUSH4 0x8DA5CB5B EQ PUSH2 0xD5 JUMPI DUP1 PUSH4 0xD0E30DB0 EQ PUSH2 0x100 JUMPI JUMPDEST PUSH1 0x0 DUP1 REVERT JUMPDEST PUSH2 0x69 PUSH1 0x4 DUP1 CALLDATASIZE SUB DUP2 ADD SWAP1 PUSH2 0x64 SWAP2 SWAP1 PUSH2 0x401 JUMP JUMPDEST PUSH2 0x11E JUMP JUMPDEST PUSH1 0x40 MLOAD PUSH2 0x76 SWAP2 SWAP1 PUSH2 0x4DF JUMP JUMPDEST PUSH1 0x40 MLOAD DUP1 SWAP2 SUB SWAP1 RETURN JUMPDEST CALLVALUE DUP1 ISZERO PUSH2 0x8B JUMPI PUSH1 0x0 DUP1 REVERT JUMPDEST POP PUSH2 0x94 PUSH2 0x248 JUMP JUMPDEST PUSH1 0x40 MLOAD PUSH2 0xA1 SWAP2 SWAP1 PUSH2 0x55A JUMP JUMPDEST PUSH1 0x40 MLOAD DUP1 SWAP2 SUB SWAP1 RETURN JUMPDEST CALLVALUE DUP1 ISZERO PUSH2 0xB6 JUMPI PUSH1 0x0 DUP1 REVERT JUMPDEST POP PUSH2 0xBF PUSH2 0x28F JUMP JUMPDEST PUSH1 0x40 MLOAD PUSH2 0xCC SWAP2 SWAP1 PUSH2 0x55A JUMP JUMPDEST PUSH1 0x40 MLOAD DUP1 SWAP2 SUB SWAP1 RETURN JUMPDEST CALLVALUE DUP1 ISZERO PUSH2 0xE1 JUMPI PUSH1 0x0 DUP1 REVERT JUMPDEST POP PUSH2 0xEA PUSH2 0x326 JUMP JUMPDEST PUSH1 0x40 MLOAD PUSH2 0xF7 SWAP2 SWAP1 PUSH2 0x4C4 JUMP JUMPDEST PUSH1 0x40 MLOAD DUP1 SWAP2 SUB SWAP1 RETURN JUMPDEST PUSH2 0x108 PUSH2 0x34A JUMP JUMPDEST PUSH1 0x40 MLOAD PUSH2 0x115 SWAP2 SWAP1 PUSH2 0x4DF JUMP JUMPDEST PUSH1 0x40 MLOAD DUP1 SWAP2 SUB SWAP1 RETURN JUMPDEST PUSH1 0x0 PUSH1 0x1 PUSH1 0x0 CALLER PUSH20 0xFFFFFFFFFFFFFFFFFFFFFFFFFFFFFFFFFFFFFFFF AND PUSH20 0xFFFFFFFFFFFFFFFFFFFFFFFFFFFFFFFFFFFFFFFF AND DUP2 MSTORE PUSH1 0x20 ADD SWAP1 DUP2 MSTORE PUSH1 0x20 ADD PUSH1 0x0 KECCAK256 SLOAD DUP3 GT ISZERO PUSH2 0x1A2 JUMPI PUSH1 0x40 MLOAD PUSH32 0x8C379A000000000000000000000000000000000000000000000000000000000 DUP2 MSTORE PUSH1 0x4 ADD PUSH2 0x199 SWAP1 PUSH2 0x4FA JUMP JUMPDEST PUSH1 0x40 MLOAD DUP1 SWAP2 SUB SWAP1 REVERT JUMPDEST DUP2 PUSH1 0x1 PUSH1 0x0 CALLER PUSH20 0xFFFFFFFFFFFFFFFFFFFFFFFFFFFFFFFFFFFFFFFF AND PUSH20 0xFFFFFFFFFFFFFFFFFFFFFFFFFFFFFFFFFFFFFFFF AND DUP2 MSTORE PUSH1 0x20 ADD SWAP1 DUP2 MSTORE PUSH1 0x20 ADD PUSH1 0x0 KECCAK256 PUSH1 0x0 DUP3 DUP3 SLOAD PUSH2 0x1F1 SWAP2 SWAP1 PUSH2 0x5DC JUMP JUMPDEST SWAP3 POP POP DUP2 SWAP1 SSTORE POP CALLER PUSH20 0xFFFFFFFFFFFFFFFFFFFFFFFFFFFFFFFFFFFFFFFF AND PUSH2 0x8FC DUP4 SWAP1 DUP2 ISZERO MUL SWAP1 PUSH1 0x40 MLOAD PUSH1 0x0 PUSH1 0x40 MLOAD DUP1 DUP4 SUB DUP2 DUP6 DUP9 DUP9 CALL SWAP4 POP POP POP POP ISZERO DUP1 ISZERO PUSH2 0x23E JUMPI RETURNDATASIZE PUSH1 0x0 DUP1 RETURNDATACOPY RETURNDATASIZE PUSH1 0x0 REVERT JUMPDEST POP PUSH1 0x1 SWAP1 POP SWAP2 SWAP1 POP JUMP JUMPDEST PUSH1 0x0 PUSH1 0x1 PUSH1 0x0 CALLER PUSH20 0xFFFFFFFFFFFFFFFFFFFFFFFFFFFFFFFFFFFFFFFF AND PUSH20 0xFFFFFFFFFFFFFFFFFFFFFFFFFFFFFFFFFFFFFFFF AND DUP2 MSTORE PUSH1 0x20 ADD SWAP1 DUP2 MSTORE PUSH1 0x20 ADD PUSH1 0x0 KECCAK256 SLOAD SWAP1 POP SWAP1 JUMP JUMPDEST PUSH1 0x0 DUP1 PUSH1 0x0 SWAP1 SLOAD SWAP1 PUSH2 0x100 EXP SWAP1 DIV PUSH20 0xFFFFFFFFFFFFFFFFFFFFFFFFFFFFFFFFFFFFFFFF AND PUSH20 0xFFFFFFFFFFFFFFFFFFFFFFFFFFFFFFFFFFFFFFFF AND CALLER PUSH20 0xFFFFFFFFFFFFFFFFFFFFFFFFFFFFFFFFFFFFFFFF AND EQ PUSH2 0x320 JUMPI PUSH1 0x40 MLOAD PUSH32 0x8C379A000000000000000000000000000000000000000000000000000000000 DUP2 MSTORE PUSH1 0x4 ADD PUSH2 0x317 SWAP1 PUSH2 0x51A JUMP JUMPDEST PUSH1 0x40 MLOAD DUP1 SWAP2 SUB SWAP1 REVERT JUMPDEST SELFBALANCE SWAP1 POP SWAP1 JUMP JUMPDEST PUSH1 0x0 DUP1 SLOAD SWAP1 PUSH2 0x100 EXP SWAP1 DIV PUSH20 0xFFFFFFFFFFFFFFFFFFFFFFFFFFFFFFFFFFFFFFFF AND DUP2 JUMP JUMPDEST PUSH1 0x0 PUSH1 0xA CALLVALUE GT PUSH2 0x38F JUMPI PUSH1 0x40 MLOAD PUSH32 0x8C379A000000000000000000000000000000000000000000000000000000000 DUP2 MSTORE PUSH1 0x4 ADD PUSH2 0x386 SWAP1 PUSH2 0x53A JUMP JUMPDEST PUSH1 0x40 MLOAD DUP1 SWAP2 SUB SWAP1 REVERT JUMPDEST CALLVALUE PUSH1 0x1 PUSH1 0x0 CALLER PUSH20 0xFFFFFFFFFFFFFFFFFFFFFFFFFFFFFFFFFFFFFFFF AND PUSH20 0xFFFFFFFFFFFFFFFFFFFFFFFFFFFFFFFFFFFFFFFF AND DUP2 MSTORE PUSH1 0x20 ADD SWAP1 DUP2 MSTORE PUSH1 0x20 ADD PUSH1 0x0 KECCAK256 PUSH1 0x0 DUP3 DUP3 SLOAD PUSH2 0x3DE SWAP2 SWAP1 PUSH2 0x586 JUMP JUMPDEST SWAP3 POP POP DUP2 SWAP1 SSTORE POP PUSH1 0x1 SWAP1 POP SWAP1 JUMP JUMPDEST PUSH1 0x0 DUP2 CALLDATALOAD SWAP1 POP PUSH2 0x3FB DUP2 PUSH2 0x72D JUMP JUMPDEST SWAP3 SWAP2 POP POP JUMP JUMPDEST PUSH1 0x0 PUSH1 0x20 DUP3 DUP5 SUB SLT ISZERO PUSH2 0x417 JUMPI PUSH2 0x416 PUSH2 0x687 JUMP JUMPDEST JUMPDEST PUSH1 0x0 PUSH2 0x425 DUP5 DUP3 DUP6 ADD PUSH2 0x3EC JUMP JUMPDEST SWAP2 POP POP SWAP3 SWAP2 POP POP JUMP JUMPDEST PUSH2 0x437 DUP2 PUSH2 0x610 JUMP JUMPDEST DUP3 MSTORE POP POP JUMP JUMPDEST PUSH2 0x446 DUP2 PUSH2 0x622 JUMP JUMPDEST DUP3 MSTORE POP POP JUMP JUMPDEST PUSH1 0x0 PUSH2 0x459 PUSH1 0x1E DUP4 PUSH2 0x575 JUMP JUMPDEST SWAP2 POP PUSH2 0x464 DUP3 PUSH2 0x68C JUMP JUMPDEST PUSH1 0x20 DUP3 ADD SWAP1 POP SWAP2 SWAP1 POP JUMP JUMPDEST PUSH1 0x0 PUSH2 0x47C PUSH1 0x26 DUP4 PUSH2 0x575 JUMP JUMPDEST SWAP2 POP PUSH2 0x487 DUP3 PUSH2 0x6B5 JUMP JUMPDEST PUSH1 0x40 DUP3 ADD SWAP1 POP SWAP2 SWAP1 POP JUMP JUMPDEST PUSH1 0x0 PUSH2 0x49F PUSH1 0x1E DUP4 PUSH2 0x575 JUMP JUMPDEST SWAP2 POP PUSH2 0x4AA DUP3 PUSH2 0x704 JUMP JUMPDEST PUSH1 0x20 DUP3 ADD SWAP1 POP SWAP2 SWAP1 POP JUMP JUMPDEST PUSH2 0x4BE DUP2 PUSH2 0x64E JUMP JUMPDEST DUP3 MSTORE POP POP JUMP JUMPDEST PUSH1 0x0 PUSH1 0x20 DUP3 ADD SWAP1 POP PUSH2 0x4D9 PUSH1 0x0 DUP4 ADD DUP5 PUSH2 0x42E JUMP JUMPDEST SWAP3 SWAP2 POP POP JUMP JUMPDEST PUSH1 0x0 PUSH1 0x20 DUP3 ADD SWAP1 POP PUSH2 0x4F4 PUSH1 0x0 DUP4 ADD DUP5 PUSH2 0x43D JUMP JUMPDEST SWAP3 SWAP2 POP POP JUMP JUMPDEST PUSH1 0x0 PUSH1 0x20 DUP3 ADD SWAP1 POP DUP2 DUP2 SUB PUSH1 0x0 DUP4 ADD MSTORE PUSH2 0x513 DUP2 PUSH2 0x44C JUMP JUMPDEST SWAP1 POP SWAP2 SWAP1 POP JUMP JUMPDEST PUSH1 0x0 PUSH1 0x20 DUP3 ADD SWAP1 POP DUP2 DUP2 SUB PUSH1 0x0 DUP4 ADD MSTORE PUSH2 0x533 DUP2 PUSH2 0x46F JUMP JUMPDEST SWAP1 POP SWAP2 SWAP1 POP JUMP JUMPDEST PUSH1 0x0 PUSH1 0x20 DUP3 ADD SWAP1 POP DUP2 DUP2 SUB PUSH1 0x0 DUP4 ADD MSTORE PUSH2 0x553 DUP2 PUSH2 0x492 JUMP JUMPDEST SWAP1 POP SWAP2 SWAP1 POP JUMP JUMPDEST PUSH1 0x0 PUSH1 0x20 DUP3 ADD SWAP1 POP PUSH2 0x56F PUSH1 0x0 DUP4 ADD DUP5 PUSH2 0x4B5 JUMP JUMPDEST SWAP3 SWAP2 POP POP JUMP JUMPDEST PUSH1 0x0 DUP3 DUP3 MSTORE PUSH1 0x20 DUP3 ADD SWAP1 POP SWAP3 SWAP2 POP POP JUMP JUMPDEST PUSH1 0x0 PUSH2 0x591 DUP3 PUSH2 0x64E JUMP JUMPDEST SWAP2 POP PUSH2 0x59C DUP4 PUSH2 0x64E JUMP JUMPDEST SWAP3 POP DUP3 PUSH32 0xFFFFFFFFFFFFFFFFFFFFFFFFFFFFFFFFFFFFFFFFFFFFFFFFFFFFFFFFFFFFFFFF SUB DUP3 GT ISZERO PUSH2 0x5D1 JUMPI PUSH2 0x5D0 PUSH2 0x658 JUMP JUMPDEST JUMPDEST DUP3 DUP3 ADD SWAP1 POP SWAP3 SWAP2 POP POP JUMP JUMPDEST PUSH1 0x0 PUSH2 0x5E7 DUP3 PUSH2 0x64E JUMP JUMPDEST SWAP2 POP PUSH2 0x5F2 DUP4 PUSH2 0x64E JUMP JUMPDEST SWAP3 POP DUP3 DUP3 LT ISZERO PUSH2 0x605 JUMPI PUSH2 0x604 PUSH2 0x658 JUMP JUMPDEST JUMPDEST DUP3 DUP3 SUB SWAP1 POP SWAP3 SWAP2 POP POP JUMP JUMPDEST PUSH1 0x0 PUSH2 0x61B DUP3 PUSH2 0x62E JUMP JUMPDEST SWAP1 POP SWAP2 SWAP1 POP JUMP JUMPDEST PUSH1 0x0 DUP2 ISZERO ISZERO SWAP1 POP SWAP2 SWAP1 POP JUMP JUMPDEST PUSH1 0x0 PUSH20 0xFFFFFFFFFFFFFFFFFFFFFFFFFFFFFFFFFFFFFFFF DUP3 AND SWAP1 POP SWAP2 SWAP1 POP JUMP JUMPDEST PUSH1 0x0 DUP2 SWAP1 POP SWAP2 SWAP1 POP JUMP JUMPDEST PUSH32 0x4E487B7100000000000000000000000000000000000000000000000000000000 PUSH1 0x0 MSTORE PUSH1 0x11 PUSH1 0x4 MSTORE PUSH1 0x24 PUSH1 0x0 REVERT JUMPDEST PUSH1 0x0 DUP1 REVERT JUMPDEST PUSH32 0x596F7520646F6E7420686176652073756666696369656E742066756E64730000 PUSH1 0x0 DUP3 ADD MSTORE POP JUMP JUMPDEST PUSH32 0x596F7520617265206E6F7420746865206F776E6572206F66207468697320636F PUSH1 0x0 DUP3 ADD MSTORE PUSH32 0x6E74726163740000000000000000000000000000000000000000000000000000 PUSH1 0x20 DUP3 ADD MSTORE POP JUMP JUMPDEST PUSH32 0x506C65617365206465706F736974206174206C65617374203130207765690000 PUSH1 0x0 DUP3 ADD MSTORE POP JUMP JUMPDEST PUSH2 0x736 DUP2 PUSH2 0x64E JUMP JUMPDEST DUP2 EQ PUSH2 0x741 JUMPI PUSH1 0x0 DUP1 REVERT JUMPDEST POP JUMP INVALID LOG2 PUSH5 0x6970667358 0x22 SLT KECCAK256 0xCA PUSH23 0x6183795E9B5D962B227E90C94D653A2E0107D092468FFB CHAINID SWAP6 0xEF 0xE5 0xCE SUB RETURNDATACOPY PUSH5 0x736F6C6343 STOP ADDMOD SMOD STOP CALLER "
				},
				"gasEstimates": {
					"creation": {
						"codeDepositCost": "382800",
						"executionCost": "24684",
						"totalCost": "407484"
					},
					"external": {
						"deposit()": "infinite",
						"getBankBalance()": "2646",
						"getbalance()": "2526",
						"owner()": "2555",
						"withdraw(uint256)": "infinite"
					}
				},
				"methodIdentifiers": {
					"deposit()": "d0e30db0",
					"getBankBalance()": "7b83b50b",
					"getbalance()": "4d9b3d5d",
					"owner()": "8da5cb5b",
					"withdraw(uint256)": "2e1a7d4d"
				}
			},
			"storageLayout": {
				"storage": [
					{
						"astId": 3,
						"contract": "contracts/Bank/bank.sol:Bank",
						"label": "owner",
						"offset": 0,
						"slot": "0",
						"type": "t_address"
					},
					{
						"astId": 7,
						"contract": "contracts/Bank/bank.sol:Bank",
						"label": "userbalance",
						"offset": 0,
						"slot": "1",
						"type": "t_mapping(t_address,t_uint256)"
					}
				],
				"types": {
					"t_address": {
						"encoding": "inplace",
						"label": "address",
						"numberOfBytes": "20"
					},
					"t_mapping(t_address,t_uint256)": {
						"encoding": "mapping",
						"key": "t_address",
						"label": "mapping(address => uint256)",
						"numberOfBytes": "32",
						"value": "t_uint256"
					},
					"t_uint256": {
						"encoding": "inplace",
						"label": "uint256",
						"numberOfBytes": "32"
					}
				}
			},
			"userdoc": {
				"kind": "user",
				"methods": {},
				"version": 1
			}
		}
	}
}