{
	"contracts/Bank/bank.sol": {
		"Bank": {
			"abi": [
				{
					"inputs": [
						{
							"internalType": "address",
							"name": "",
							"type": "address"
						}
					],
					"name": "balances",
					"outputs": [
						{
							"internalType": "uint256",
							"name": "",
							"type": "uint256"
						}
					],
					"stateMutability": "view",
					"type": "function"
				},
				{
					"inputs": [],
					"name": "deposit",
					"outputs": [],
					"stateMutability": "payable",
					"type": "function"
				},
				{
					"inputs": [],
					"name": "getBal",
					"outputs": [
						{
							"internalType": "uint256",
							"name": "",
							"type": "uint256"
						}
					],
					"stateMutability": "view",
					"type": "function"
				},
				{
					"inputs": [
						{
							"internalType": "uint256",
							"name": "_amount",
							"type": "uint256"
						}
					],
					"name": "withdraw",
					"outputs": [],
					"stateMutability": "nonpayable",
					"type": "function"
				}
			],
			"devdoc": {
				"kind": "dev",
				"methods": {},
				"version": 1
			},
			"evm": {
				"assembly": "    /* \"contracts/Bank/bank.sol\":36:939  contract Bank {\r... */\n  mstore(0x40, 0x80)\n  callvalue\n  dup1\n  iszero\n  tag_1\n  jumpi\n  0x00\n  dup1\n  revert\ntag_1:\n  pop\n  dataSize(sub_0)\n  dup1\n  dataOffset(sub_0)\n  0x00\n  codecopy\n  0x00\n  return\nstop\n\nsub_0: assembly {\n        /* \"contracts/Bank/bank.sol\":36:939  contract Bank {\r... */\n      mstore(0x40, 0x80)\n      jumpi(tag_1, lt(calldatasize, 0x04))\n      shr(0xe0, calldataload(0x00))\n      dup1\n      0x25caa262\n      eq\n      tag_2\n      jumpi\n      dup1\n      0x27e235e3\n      eq\n      tag_3\n      jumpi\n      dup1\n      0x2e1a7d4d\n      eq\n      tag_4\n      jumpi\n      dup1\n      0xd0e30db0\n      eq\n      tag_5\n      jumpi\n    tag_1:\n      0x00\n      dup1\n      revert\n        /* \"contracts/Bank/bank.sol\":844:934  function getBal() public view returns(uint){\r... */\n    tag_2:\n      callvalue\n      dup1\n      iszero\n      tag_6\n      jumpi\n      0x00\n      dup1\n      revert\n    tag_6:\n      pop\n      tag_7\n      tag_8\n      jump\t// in\n    tag_7:\n      mload(0x40)\n      tag_9\n      swap2\n      swap1\n      tag_10\n      jump\t// in\n    tag_9:\n      mload(0x40)\n      dup1\n      swap2\n      sub\n      swap1\n      return\n        /* \"contracts/Bank/bank.sol\":59:99  mapping(address => uint) public balances */\n    tag_3:\n      callvalue\n      dup1\n      iszero\n      tag_11\n      jumpi\n      0x00\n      dup1\n      revert\n    tag_11:\n      pop\n      tag_12\n      0x04\n      dup1\n      calldatasize\n      sub\n      dup2\n      add\n      swap1\n      tag_13\n      swap2\n      swap1\n      tag_14\n      jump\t// in\n    tag_13:\n      tag_15\n      jump\t// in\n    tag_12:\n      mload(0x40)\n      tag_16\n      swap2\n      swap1\n      tag_10\n      jump\t// in\n    tag_16:\n      mload(0x40)\n      dup1\n      swap2\n      sub\n      swap1\n      return\n        /* \"contracts/Bank/bank.sol\":334:836  function withdraw(uint _amount) public{\r... */\n    tag_4:\n      callvalue\n      dup1\n      iszero\n      tag_17\n      jumpi\n      0x00\n      dup1\n      revert\n    tag_17:\n      pop\n      tag_18\n      0x04\n      dup1\n      calldatasize\n      sub\n      dup2\n      add\n      swap1\n      tag_19\n      swap2\n      swap1\n      tag_20\n      jump\t// in\n    tag_19:\n      tag_21\n      jump\t// in\n    tag_18:\n      stop\n        /* \"contracts/Bank/bank.sol\":198:284  function deposit() public payable{\r... */\n    tag_5:\n      tag_22\n      tag_23\n      jump\t// in\n    tag_22:\n      stop\n        /* \"contracts/Bank/bank.sol\":844:934  function getBal() public view returns(uint){\r... */\n    tag_8:\n        /* \"contracts/Bank/bank.sol\":882:886  uint */\n      0x00\n        /* \"contracts/Bank/bank.sol\":905:926  address(this).balance */\n      selfbalance\n        /* \"contracts/Bank/bank.sol\":898:926  return address(this).balance */\n      swap1\n      pop\n        /* \"contracts/Bank/bank.sol\":844:934  function getBal() public view returns(uint){\r... */\n      swap1\n      jump\t// out\n        /* \"contracts/Bank/bank.sol\":59:99  mapping(address => uint) public balances */\n    tag_15:\n      mstore(0x20, 0x00)\n      dup1\n      0x00\n      mstore\n      keccak256(0x00, 0x40)\n      0x00\n      swap2\n      pop\n      swap1\n      pop\n      sload\n      dup2\n      jump\t// out\n        /* \"contracts/Bank/bank.sol\":334:836  function withdraw(uint _amount) public{\r... */\n    tag_21:\n        /* \"contracts/Bank/bank.sol\":513:520  _amount */\n      dup1\n        /* \"contracts/Bank/bank.sol\":490:498  balances */\n      0x00\n        /* \"contracts/Bank/bank.sol\":490:510  balances[msg.sender] */\n      dup1\n        /* \"contracts/Bank/bank.sol\":499:509  msg.sender */\n      caller\n        /* \"contracts/Bank/bank.sol\":490:510  balances[msg.sender] */\n      0xffffffffffffffffffffffffffffffffffffffff\n      and\n      0xffffffffffffffffffffffffffffffffffffffff\n      and\n      dup2\n      mstore\n      0x20\n      add\n      swap1\n      dup2\n      mstore\n      0x20\n      add\n      0x00\n      keccak256\n      sload\n        /* \"contracts/Bank/bank.sol\":490:520  balances[msg.sender]>= _amount */\n      lt\n      iszero\n        /* \"contracts/Bank/bank.sol\":482:541  require(balances[msg.sender]>= _amount, \"Not enough ether\") */\n      tag_26\n      jumpi\n      mload(0x40)\n      0x08c379a000000000000000000000000000000000000000000000000000000000\n      dup2\n      mstore\n      0x04\n      add\n      tag_27\n      swap1\n      tag_28\n      jump\t// in\n    tag_27:\n      mload(0x40)\n      dup1\n      swap2\n      sub\n      swap1\n      revert\n    tag_26:\n        /* \"contracts/Bank/bank.sol\":645:652  _amount */\n      dup1\n        /* \"contracts/Bank/bank.sol\":621:629  balances */\n      0x00\n        /* \"contracts/Bank/bank.sol\":621:641  balances[msg.sender] */\n      dup1\n        /* \"contracts/Bank/bank.sol\":630:640  msg.sender */\n      caller\n        /* \"contracts/Bank/bank.sol\":621:641  balances[msg.sender] */\n      0xffffffffffffffffffffffffffffffffffffffff\n      and\n      0xffffffffffffffffffffffffffffffffffffffff\n      and\n      dup2\n      mstore\n      0x20\n      add\n      swap1\n      dup2\n      mstore\n      0x20\n      add\n      0x00\n      keccak256\n      0x00\n        /* \"contracts/Bank/bank.sol\":621:652  balances[msg.sender] -= _amount */\n      dup3\n      dup3\n      sload\n      tag_29\n      swap2\n      swap1\n      tag_30\n      jump\t// in\n    tag_29:\n      swap3\n      pop\n      pop\n      dup2\n      swap1\n      sstore\n      pop\n        /* \"contracts/Bank/bank.sol\":717:726  bool sent */\n      0x00\n        /* \"contracts/Bank/bank.sol\":731:741  msg.sender */\n      caller\n        /* \"contracts/Bank/bank.sol\":731:746  msg.sender.call */\n      0xffffffffffffffffffffffffffffffffffffffff\n      and\n        /* \"contracts/Bank/bank.sol\":754:761  _amount */\n      dup3\n        /* \"contracts/Bank/bank.sol\":731:770  msg.sender.call{value: _amount}(\"Sent\") */\n      mload(0x40)\n      tag_31\n      swap1\n      tag_32\n      jump\t// in\n    tag_31:\n      0x00\n      mload(0x40)\n      dup1\n      dup4\n      sub\n      dup2\n      dup6\n      dup8\n      gas\n      call\n      swap3\n      pop\n      pop\n      pop\n      returndatasize\n      dup1\n      0x00\n      dup2\n      eq\n      tag_35\n      jumpi\n      mload(0x40)\n      swap2\n      pop\n      and(add(returndatasize, 0x3f), not(0x1f))\n      dup3\n      add\n      0x40\n      mstore\n      returndatasize\n      dup3\n      mstore\n      returndatasize\n      0x00\n      0x20\n      dup5\n      add\n      returndatacopy\n      jump(tag_34)\n    tag_35:\n      0x60\n      swap2\n      pop\n    tag_34:\n      pop\n        /* \"contracts/Bank/bank.sol\":716:770  (bool sent,) = msg.sender.call{value: _amount}(\"Sent\") */\n      pop\n      swap1\n      pop\n        /* \"contracts/Bank/bank.sol\":789:793  sent */\n      dup1\n        /* \"contracts/Bank/bank.sol\":781:816  require(sent, \"failed to send ETH\") */\n      tag_36\n      jumpi\n      mload(0x40)\n      0x08c379a000000000000000000000000000000000000000000000000000000000\n      dup2\n      mstore\n      0x04\n      add\n      tag_37\n      swap1\n      tag_38\n      jump\t// in\n    tag_37:\n      mload(0x40)\n      dup1\n      swap2\n      sub\n      swap1\n      revert\n    tag_36:\n        /* \"contracts/Bank/bank.sol\":372:836  {\r... */\n      pop\n        /* \"contracts/Bank/bank.sol\":334:836  function withdraw(uint _amount) public{\r... */\n      pop\n      jump\t// out\n        /* \"contracts/Bank/bank.sol\":198:284  function deposit() public payable{\r... */\n    tag_23:\n        /* \"contracts/Bank/bank.sol\":266:275  msg.value */\n      callvalue\n        /* \"contracts/Bank/bank.sol\":242:250  balances */\n      0x00\n        /* \"contracts/Bank/bank.sol\":242:262  balances[msg.sender] */\n      dup1\n        /* \"contracts/Bank/bank.sol\":251:261  msg.sender */\n      caller\n        /* \"contracts/Bank/bank.sol\":242:262  balances[msg.sender] */\n      0xffffffffffffffffffffffffffffffffffffffff\n      and\n      0xffffffffffffffffffffffffffffffffffffffff\n      and\n      dup2\n      mstore\n      0x20\n      add\n      swap1\n      dup2\n      mstore\n      0x20\n      add\n      0x00\n      keccak256\n      0x00\n        /* \"contracts/Bank/bank.sol\":242:275  balances[msg.sender] += msg.value */\n      dup3\n      dup3\n      sload\n      tag_40\n      swap2\n      swap1\n      tag_41\n      jump\t// in\n    tag_40:\n      swap3\n      pop\n      pop\n      dup2\n      swap1\n      sstore\n      pop\n        /* \"contracts/Bank/bank.sol\":198:284  function deposit() public payable{\r... */\n      jump\t// out\n        /* \"#utility.yul\":7:146   */\n    tag_43:\n        /* \"#utility.yul\":53:58   */\n      0x00\n        /* \"#utility.yul\":91:97   */\n      dup2\n        /* \"#utility.yul\":78:98   */\n      calldataload\n        /* \"#utility.yul\":69:98   */\n      swap1\n      pop\n        /* \"#utility.yul\":107:140   */\n      tag_45\n        /* \"#utility.yul\":134:139   */\n      dup2\n        /* \"#utility.yul\":107:140   */\n      tag_46\n      jump\t// in\n    tag_45:\n        /* \"#utility.yul\":7:146   */\n      swap3\n      swap2\n      pop\n      pop\n      jump\t// out\n        /* \"#utility.yul\":152:291   */\n    tag_47:\n        /* \"#utility.yul\":198:203   */\n      0x00\n        /* \"#utility.yul\":236:242   */\n      dup2\n        /* \"#utility.yul\":223:243   */\n      calldataload\n        /* \"#utility.yul\":214:243   */\n      swap1\n      pop\n        /* \"#utility.yul\":252:285   */\n      tag_49\n        /* \"#utility.yul\":279:284   */\n      dup2\n        /* \"#utility.yul\":252:285   */\n      tag_50\n      jump\t// in\n    tag_49:\n        /* \"#utility.yul\":152:291   */\n      swap3\n      swap2\n      pop\n      pop\n      jump\t// out\n        /* \"#utility.yul\":297:626   */\n    tag_14:\n        /* \"#utility.yul\":356:362   */\n      0x00\n        /* \"#utility.yul\":405:407   */\n      0x20\n        /* \"#utility.yul\":393:402   */\n      dup3\n        /* \"#utility.yul\":384:391   */\n      dup5\n        /* \"#utility.yul\":380:403   */\n      sub\n        /* \"#utility.yul\":376:408   */\n      slt\n        /* \"#utility.yul\":373:492   */\n      iszero\n      tag_52\n      jumpi\n        /* \"#utility.yul\":411:490   */\n      tag_53\n      tag_54\n      jump\t// in\n    tag_53:\n        /* \"#utility.yul\":373:492   */\n    tag_52:\n        /* \"#utility.yul\":531:532   */\n      0x00\n        /* \"#utility.yul\":556:609   */\n      tag_55\n        /* \"#utility.yul\":601:608   */\n      dup5\n        /* \"#utility.yul\":592:598   */\n      dup3\n        /* \"#utility.yul\":581:590   */\n      dup6\n        /* \"#utility.yul\":577:599   */\n      add\n        /* \"#utility.yul\":556:609   */\n      tag_43\n      jump\t// in\n    tag_55:\n        /* \"#utility.yul\":546:609   */\n      swap2\n      pop\n        /* \"#utility.yul\":502:619   */\n      pop\n        /* \"#utility.yul\":297:626   */\n      swap3\n      swap2\n      pop\n      pop\n      jump\t// out\n        /* \"#utility.yul\":632:961   */\n    tag_20:\n        /* \"#utility.yul\":691:697   */\n      0x00\n        /* \"#utility.yul\":740:742   */\n      0x20\n        /* \"#utility.yul\":728:737   */\n      dup3\n        /* \"#utility.yul\":719:726   */\n      dup5\n        /* \"#utility.yul\":715:738   */\n      sub\n        /* \"#utility.yul\":711:743   */\n      slt\n        /* \"#utility.yul\":708:827   */\n      iszero\n      tag_57\n      jumpi\n        /* \"#utility.yul\":746:825   */\n      tag_58\n      tag_54\n      jump\t// in\n    tag_58:\n        /* \"#utility.yul\":708:827   */\n    tag_57:\n        /* \"#utility.yul\":866:867   */\n      0x00\n        /* \"#utility.yul\":891:944   */\n      tag_59\n        /* \"#utility.yul\":936:943   */\n      dup5\n        /* \"#utility.yul\":927:933   */\n      dup3\n        /* \"#utility.yul\":916:925   */\n      dup6\n        /* \"#utility.yul\":912:934   */\n      add\n        /* \"#utility.yul\":891:944   */\n      tag_47\n      jump\t// in\n    tag_59:\n        /* \"#utility.yul\":881:944   */\n      swap2\n      pop\n        /* \"#utility.yul\":837:954   */\n      pop\n        /* \"#utility.yul\":632:961   */\n      swap3\n      swap2\n      pop\n      pop\n      jump\t// out\n        /* \"#utility.yul\":967:1333   */\n    tag_60:\n        /* \"#utility.yul\":1109:1112   */\n      0x00\n        /* \"#utility.yul\":1130:1197   */\n      tag_62\n        /* \"#utility.yul\":1194:1196   */\n      0x10\n        /* \"#utility.yul\":1189:1192   */\n      dup4\n        /* \"#utility.yul\":1130:1197   */\n      tag_63\n      jump\t// in\n    tag_62:\n        /* \"#utility.yul\":1123:1197   */\n      swap2\n      pop\n        /* \"#utility.yul\":1206:1299   */\n      tag_64\n        /* \"#utility.yul\":1295:1298   */\n      dup3\n        /* \"#utility.yul\":1206:1299   */\n      tag_65\n      jump\t// in\n    tag_64:\n        /* \"#utility.yul\":1324:1326   */\n      0x20\n        /* \"#utility.yul\":1319:1322   */\n      dup3\n        /* \"#utility.yul\":1315:1327   */\n      add\n        /* \"#utility.yul\":1308:1327   */\n      swap1\n      pop\n        /* \"#utility.yul\":967:1333   */\n      swap2\n      swap1\n      pop\n      jump\t// out\n        /* \"#utility.yul\":1339:1705   */\n    tag_66:\n        /* \"#utility.yul\":1481:1484   */\n      0x00\n        /* \"#utility.yul\":1502:1569   */\n      tag_68\n        /* \"#utility.yul\":1566:1568   */\n      0x12\n        /* \"#utility.yul\":1561:1564   */\n      dup4\n        /* \"#utility.yul\":1502:1569   */\n      tag_63\n      jump\t// in\n    tag_68:\n        /* \"#utility.yul\":1495:1569   */\n      swap2\n      pop\n        /* \"#utility.yul\":1578:1671   */\n      tag_69\n        /* \"#utility.yul\":1667:1670   */\n      dup3\n        /* \"#utility.yul\":1578:1671   */\n      tag_70\n      jump\t// in\n    tag_69:\n        /* \"#utility.yul\":1696:1698   */\n      0x20\n        /* \"#utility.yul\":1691:1694   */\n      dup3\n        /* \"#utility.yul\":1687:1699   */\n      add\n        /* \"#utility.yul\":1680:1699   */\n      swap1\n      pop\n        /* \"#utility.yul\":1339:1705   */\n      swap2\n      swap1\n      pop\n      jump\t// out\n        /* \"#utility.yul\":1711:2109   */\n    tag_71:\n        /* \"#utility.yul\":1870:1873   */\n      0x00\n        /* \"#utility.yul\":1891:1974   */\n      tag_73\n        /* \"#utility.yul\":1972:1973   */\n      0x04\n        /* \"#utility.yul\":1967:1970   */\n      dup4\n        /* \"#utility.yul\":1891:1974   */\n      tag_74\n      jump\t// in\n    tag_73:\n        /* \"#utility.yul\":1884:1974   */\n      swap2\n      pop\n        /* \"#utility.yul\":1983:2076   */\n      tag_75\n        /* \"#utility.yul\":2072:2075   */\n      dup3\n        /* \"#utility.yul\":1983:2076   */\n      tag_76\n      jump\t// in\n    tag_75:\n        /* \"#utility.yul\":2101:2102   */\n      0x04\n        /* \"#utility.yul\":2096:2099   */\n      dup3\n        /* \"#utility.yul\":2092:2103   */\n      add\n        /* \"#utility.yul\":2085:2103   */\n      swap1\n      pop\n        /* \"#utility.yul\":1711:2109   */\n      swap2\n      swap1\n      pop\n      jump\t// out\n        /* \"#utility.yul\":2115:2233   */\n    tag_77:\n        /* \"#utility.yul\":2202:2226   */\n      tag_79\n        /* \"#utility.yul\":2220:2225   */\n      dup2\n        /* \"#utility.yul\":2202:2226   */\n      tag_80\n      jump\t// in\n    tag_79:\n        /* \"#utility.yul\":2197:2200   */\n      dup3\n        /* \"#utility.yul\":2190:2227   */\n      mstore\n        /* \"#utility.yul\":2115:2233   */\n      pop\n      pop\n      jump\t// out\n        /* \"#utility.yul\":2239:2618   */\n    tag_32:\n        /* \"#utility.yul\":2423:2426   */\n      0x00\n        /* \"#utility.yul\":2445:2592   */\n      tag_82\n        /* \"#utility.yul\":2588:2591   */\n      dup3\n        /* \"#utility.yul\":2445:2592   */\n      tag_71\n      jump\t// in\n    tag_82:\n        /* \"#utility.yul\":2438:2592   */\n      swap2\n      pop\n        /* \"#utility.yul\":2609:2612   */\n      dup2\n        /* \"#utility.yul\":2602:2612   */\n      swap1\n      pop\n        /* \"#utility.yul\":2239:2618   */\n      swap2\n      swap1\n      pop\n      jump\t// out\n        /* \"#utility.yul\":2624:3043   */\n    tag_28:\n        /* \"#utility.yul\":2790:2794   */\n      0x00\n        /* \"#utility.yul\":2828:2830   */\n      0x20\n        /* \"#utility.yul\":2817:2826   */\n      dup3\n        /* \"#utility.yul\":2813:2831   */\n      add\n        /* \"#utility.yul\":2805:2831   */\n      swap1\n      pop\n        /* \"#utility.yul\":2877:2886   */\n      dup2\n        /* \"#utility.yul\":2871:2875   */\n      dup2\n        /* \"#utility.yul\":2867:2887   */\n      sub\n        /* \"#utility.yul\":2863:2864   */\n      0x00\n        /* \"#utility.yul\":2852:2861   */\n      dup4\n        /* \"#utility.yul\":2848:2865   */\n      add\n        /* \"#utility.yul\":2841:2888   */\n      mstore\n        /* \"#utility.yul\":2905:3036   */\n      tag_84\n        /* \"#utility.yul\":3031:3035   */\n      dup2\n        /* \"#utility.yul\":2905:3036   */\n      tag_60\n      jump\t// in\n    tag_84:\n        /* \"#utility.yul\":2897:3036   */\n      swap1\n      pop\n        /* \"#utility.yul\":2624:3043   */\n      swap2\n      swap1\n      pop\n      jump\t// out\n        /* \"#utility.yul\":3049:3468   */\n    tag_38:\n        /* \"#utility.yul\":3215:3219   */\n      0x00\n        /* \"#utility.yul\":3253:3255   */\n      0x20\n        /* \"#utility.yul\":3242:3251   */\n      dup3\n        /* \"#utility.yul\":3238:3256   */\n      add\n        /* \"#utility.yul\":3230:3256   */\n      swap1\n      pop\n        /* \"#utility.yul\":3302:3311   */\n      dup2\n        /* \"#utility.yul\":3296:3300   */\n      dup2\n        /* \"#utility.yul\":3292:3312   */\n      sub\n        /* \"#utility.yul\":3288:3289   */\n      0x00\n        /* \"#utility.yul\":3277:3286   */\n      dup4\n        /* \"#utility.yul\":3273:3290   */\n      add\n        /* \"#utility.yul\":3266:3313   */\n      mstore\n        /* \"#utility.yul\":3330:3461   */\n      tag_86\n        /* \"#utility.yul\":3456:3460   */\n      dup2\n        /* \"#utility.yul\":3330:3461   */\n      tag_66\n      jump\t// in\n    tag_86:\n        /* \"#utility.yul\":3322:3461   */\n      swap1\n      pop\n        /* \"#utility.yul\":3049:3468   */\n      swap2\n      swap1\n      pop\n      jump\t// out\n        /* \"#utility.yul\":3474:3696   */\n    tag_10:\n        /* \"#utility.yul\":3567:3571   */\n      0x00\n        /* \"#utility.yul\":3605:3607   */\n      0x20\n        /* \"#utility.yul\":3594:3603   */\n      dup3\n        /* \"#utility.yul\":3590:3608   */\n      add\n        /* \"#utility.yul\":3582:3608   */\n      swap1\n      pop\n        /* \"#utility.yul\":3618:3689   */\n      tag_88\n        /* \"#utility.yul\":3686:3687   */\n      0x00\n        /* \"#utility.yul\":3675:3684   */\n      dup4\n        /* \"#utility.yul\":3671:3688   */\n      add\n        /* \"#utility.yul\":3662:3668   */\n      dup5\n        /* \"#utility.yul\":3618:3689   */\n      tag_77\n      jump\t// in\n    tag_88:\n        /* \"#utility.yul\":3474:3696   */\n      swap3\n      swap2\n      pop\n      pop\n      jump\t// out\n        /* \"#utility.yul\":3783:3930   */\n    tag_74:\n        /* \"#utility.yul\":3884:3895   */\n      0x00\n        /* \"#utility.yul\":3921:3924   */\n      dup2\n        /* \"#utility.yul\":3906:3924   */\n      swap1\n      pop\n        /* \"#utility.yul\":3783:3930   */\n      swap3\n      swap2\n      pop\n      pop\n      jump\t// out\n        /* \"#utility.yul\":3936:4105   */\n    tag_63:\n        /* \"#utility.yul\":4020:4031   */\n      0x00\n        /* \"#utility.yul\":4054:4060   */\n      dup3\n        /* \"#utility.yul\":4049:4052   */\n      dup3\n        /* \"#utility.yul\":4042:4061   */\n      mstore\n        /* \"#utility.yul\":4094:4098   */\n      0x20\n        /* \"#utility.yul\":4089:4092   */\n      dup3\n        /* \"#utility.yul\":4085:4099   */\n      add\n        /* \"#utility.yul\":4070:4099   */\n      swap1\n      pop\n        /* \"#utility.yul\":3936:4105   */\n      swap3\n      swap2\n      pop\n      pop\n      jump\t// out\n        /* \"#utility.yul\":4111:4416   */\n    tag_41:\n        /* \"#utility.yul\":4151:4154   */\n      0x00\n        /* \"#utility.yul\":4170:4190   */\n      tag_94\n        /* \"#utility.yul\":4188:4189   */\n      dup3\n        /* \"#utility.yul\":4170:4190   */\n      tag_80\n      jump\t// in\n    tag_94:\n        /* \"#utility.yul\":4165:4190   */\n      swap2\n      pop\n        /* \"#utility.yul\":4204:4224   */\n      tag_95\n        /* \"#utility.yul\":4222:4223   */\n      dup4\n        /* \"#utility.yul\":4204:4224   */\n      tag_80\n      jump\t// in\n    tag_95:\n        /* \"#utility.yul\":4199:4224   */\n      swap3\n      pop\n        /* \"#utility.yul\":4358:4359   */\n      dup3\n        /* \"#utility.yul\":4290:4356   */\n      0xffffffffffffffffffffffffffffffffffffffffffffffffffffffffffffffff\n        /* \"#utility.yul\":4286:4360   */\n      sub\n        /* \"#utility.yul\":4283:4284   */\n      dup3\n        /* \"#utility.yul\":4280:4361   */\n      gt\n        /* \"#utility.yul\":4277:4384   */\n      iszero\n      tag_96\n      jumpi\n        /* \"#utility.yul\":4364:4382   */\n      tag_97\n      tag_98\n      jump\t// in\n    tag_97:\n        /* \"#utility.yul\":4277:4384   */\n    tag_96:\n        /* \"#utility.yul\":4408:4409   */\n      dup3\n        /* \"#utility.yul\":4405:4406   */\n      dup3\n        /* \"#utility.yul\":4401:4410   */\n      add\n        /* \"#utility.yul\":4394:4410   */\n      swap1\n      pop\n        /* \"#utility.yul\":4111:4416   */\n      swap3\n      swap2\n      pop\n      pop\n      jump\t// out\n        /* \"#utility.yul\":4422:4613   */\n    tag_30:\n        /* \"#utility.yul\":4462:4466   */\n      0x00\n        /* \"#utility.yul\":4482:4502   */\n      tag_100\n        /* \"#utility.yul\":4500:4501   */\n      dup3\n        /* \"#utility.yul\":4482:4502   */\n      tag_80\n      jump\t// in\n    tag_100:\n        /* \"#utility.yul\":4477:4502   */\n      swap2\n      pop\n        /* \"#utility.yul\":4516:4536   */\n      tag_101\n        /* \"#utility.yul\":4534:4535   */\n      dup4\n        /* \"#utility.yul\":4516:4536   */\n      tag_80\n      jump\t// in\n    tag_101:\n        /* \"#utility.yul\":4511:4536   */\n      swap3\n      pop\n        /* \"#utility.yul\":4555:4556   */\n      dup3\n        /* \"#utility.yul\":4552:4553   */\n      dup3\n        /* \"#utility.yul\":4549:4557   */\n      lt\n        /* \"#utility.yul\":4546:4580   */\n      iszero\n      tag_102\n      jumpi\n        /* \"#utility.yul\":4560:4578   */\n      tag_103\n      tag_98\n      jump\t// in\n    tag_103:\n        /* \"#utility.yul\":4546:4580   */\n    tag_102:\n        /* \"#utility.yul\":4605:4606   */\n      dup3\n        /* \"#utility.yul\":4602:4603   */\n      dup3\n        /* \"#utility.yul\":4598:4607   */\n      sub\n        /* \"#utility.yul\":4590:4607   */\n      swap1\n      pop\n        /* \"#utility.yul\":4422:4613   */\n      swap3\n      swap2\n      pop\n      pop\n      jump\t// out\n        /* \"#utility.yul\":4619:4715   */\n    tag_104:\n        /* \"#utility.yul\":4656:4663   */\n      0x00\n        /* \"#utility.yul\":4685:4709   */\n      tag_106\n        /* \"#utility.yul\":4703:4708   */\n      dup3\n        /* \"#utility.yul\":4685:4709   */\n      tag_107\n      jump\t// in\n    tag_106:\n        /* \"#utility.yul\":4674:4709   */\n      swap1\n      pop\n        /* \"#utility.yul\":4619:4715   */\n      swap2\n      swap1\n      pop\n      jump\t// out\n        /* \"#utility.yul\":4721:4847   */\n    tag_107:\n        /* \"#utility.yul\":4758:4765   */\n      0x00\n        /* \"#utility.yul\":4798:4840   */\n      0xffffffffffffffffffffffffffffffffffffffff\n        /* \"#utility.yul\":4791:4796   */\n      dup3\n        /* \"#utility.yul\":4787:4841   */\n      and\n        /* \"#utility.yul\":4776:4841   */\n      swap1\n      pop\n        /* \"#utility.yul\":4721:4847   */\n      swap2\n      swap1\n      pop\n      jump\t// out\n        /* \"#utility.yul\":4853:4930   */\n    tag_80:\n        /* \"#utility.yul\":4890:4897   */\n      0x00\n        /* \"#utility.yul\":4919:4924   */\n      dup2\n        /* \"#utility.yul\":4908:4924   */\n      swap1\n      pop\n        /* \"#utility.yul\":4853:4930   */\n      swap2\n      swap1\n      pop\n      jump\t// out\n        /* \"#utility.yul\":4936:5116   */\n    tag_98:\n        /* \"#utility.yul\":4984:5061   */\n      0x4e487b7100000000000000000000000000000000000000000000000000000000\n        /* \"#utility.yul\":4981:4982   */\n      0x00\n        /* \"#utility.yul\":4974:5062   */\n      mstore\n        /* \"#utility.yul\":5081:5085   */\n      0x11\n        /* \"#utility.yul\":5078:5079   */\n      0x04\n        /* \"#utility.yul\":5071:5086   */\n      mstore\n        /* \"#utility.yul\":5105:5109   */\n      0x24\n        /* \"#utility.yul\":5102:5103   */\n      0x00\n        /* \"#utility.yul\":5095:5110   */\n      revert\n        /* \"#utility.yul\":5245:5362   */\n    tag_54:\n        /* \"#utility.yul\":5354:5355   */\n      0x00\n        /* \"#utility.yul\":5351:5352   */\n      dup1\n        /* \"#utility.yul\":5344:5356   */\n      revert\n        /* \"#utility.yul\":5368:5534   */\n    tag_65:\n        /* \"#utility.yul\":5508:5526   */\n      0x4e6f7420656e6f75676820657468657200000000000000000000000000000000\n        /* \"#utility.yul\":5504:5505   */\n      0x00\n        /* \"#utility.yul\":5496:5502   */\n      dup3\n        /* \"#utility.yul\":5492:5506   */\n      add\n        /* \"#utility.yul\":5485:5527   */\n      mstore\n        /* \"#utility.yul\":5368:5534   */\n      pop\n      jump\t// out\n        /* \"#utility.yul\":5540:5708   */\n    tag_70:\n        /* \"#utility.yul\":5680:5700   */\n      0x6661696c656420746f2073656e64204554480000000000000000000000000000\n        /* \"#utility.yul\":5676:5677   */\n      0x00\n        /* \"#utility.yul\":5668:5674   */\n      dup3\n        /* \"#utility.yul\":5664:5678   */\n      add\n        /* \"#utility.yul\":5657:5701   */\n      mstore\n        /* \"#utility.yul\":5540:5708   */\n      pop\n      jump\t// out\n        /* \"#utility.yul\":5714:5868   */\n    tag_76:\n        /* \"#utility.yul\":5854:5860   */\n      0x53656e7400000000000000000000000000000000000000000000000000000000\n        /* \"#utility.yul\":5850:5851   */\n      0x00\n        /* \"#utility.yul\":5842:5848   */\n      dup3\n        /* \"#utility.yul\":5838:5852   */\n      add\n        /* \"#utility.yul\":5831:5861   */\n      mstore\n        /* \"#utility.yul\":5714:5868   */\n      pop\n      jump\t// out\n        /* \"#utility.yul\":5874:5996   */\n    tag_46:\n        /* \"#utility.yul\":5947:5971   */\n      tag_118\n        /* \"#utility.yul\":5965:5970   */\n      dup2\n        /* \"#utility.yul\":5947:5971   */\n      tag_104\n      jump\t// in\n    tag_118:\n        /* \"#utility.yul\":5940:5945   */\n      dup2\n        /* \"#utility.yul\":5937:5972   */\n      eq\n        /* \"#utility.yul\":5927:5990   */\n      tag_119\n      jumpi\n        /* \"#utility.yul\":5986:5987   */\n      0x00\n        /* \"#utility.yul\":5983:5984   */\n      dup1\n        /* \"#utility.yul\":5976:5988   */\n      revert\n        /* \"#utility.yul\":5927:5990   */\n    tag_119:\n        /* \"#utility.yul\":5874:5996   */\n      pop\n      jump\t// out\n        /* \"#utility.yul\":6002:6124   */\n    tag_50:\n        /* \"#utility.yul\":6075:6099   */\n      tag_121\n        /* \"#utility.yul\":6093:6098   */\n      dup2\n        /* \"#utility.yul\":6075:6099   */\n      tag_80\n      jump\t// in\n    tag_121:\n        /* \"#utility.yul\":6068:6073   */\n      dup2\n        /* \"#utility.yul\":6065:6100   */\n      eq\n        /* \"#utility.yul\":6055:6118   */\n      tag_122\n      jumpi\n        /* \"#utility.yul\":6114:6115   */\n      0x00\n        /* \"#utility.yul\":6111:6112   */\n      dup1\n        /* \"#utility.yul\":6104:6116   */\n      revert\n        /* \"#utility.yul\":6055:6118   */\n    tag_122:\n        /* \"#utility.yul\":6002:6124   */\n      pop\n      jump\t// out\n\n    auxdata: 0xa264697066735822122064c18e5c24028f3e229ca2db325a99e04c985caefbd2c1d8753ffd6bd39745f364736f6c63430008070033\n}\n",
				"bytecode": {
					"linkReferences": {},
					"object": "608060405234801561001057600080fd5b5061063d806100206000396000f3fe60806040526004361061003f5760003560e01c806325caa2621461004457806327e235e31461006f5780632e1a7d4d146100ac578063d0e30db0146100d5575b600080fd5b34801561005057600080fd5b506100596100df565b604051610066919061042d565b60405180910390f35b34801561007b57600080fd5b5061009660048036038101906100919190610306565b6100e7565b6040516100a3919061042d565b60405180910390f35b3480156100b857600080fd5b506100d360048036038101906100ce9190610333565b6100ff565b005b6100dd610285565b005b600047905090565b60006020528060005260406000206000915090505481565b806000803373ffffffffffffffffffffffffffffffffffffffff1673ffffffffffffffffffffffffffffffffffffffff168152602001908152602001600020541015610180576040517f08c379a0000000000000000000000000000000000000000000000000000000008152600401610177906103ed565b60405180910390fd5b806000803373ffffffffffffffffffffffffffffffffffffffff1673ffffffffffffffffffffffffffffffffffffffff16815260200190815260200160002060008282546101ce91906104ba565b9250508190555060003373ffffffffffffffffffffffffffffffffffffffff16826040516101fb906103d8565b60006040518083038185875af1925050503d8060008114610238576040519150601f19603f3d011682016040523d82523d6000602084013e61023d565b606091505b5050905080610281576040517f08c379a00000000000000000000000000000000000000000000000000000000081526004016102789061040d565b60405180910390fd5b5050565b346000803373ffffffffffffffffffffffffffffffffffffffff1673ffffffffffffffffffffffffffffffffffffffff16815260200190815260200160002060008282546102d39190610464565b92505081905550565b6000813590506102eb816105d9565b92915050565b600081359050610300816105f0565b92915050565b60006020828403121561031c5761031b610559565b5b600061032a848285016102dc565b91505092915050565b60006020828403121561034957610348610559565b5b6000610357848285016102f1565b91505092915050565b600061036d601083610453565b91506103788261055e565b602082019050919050565b6000610390601283610453565b915061039b82610587565b602082019050919050565b60006103b3600483610448565b91506103be826105b0565b600482019050919050565b6103d281610520565b82525050565b60006103e3826103a6565b9150819050919050565b6000602082019050818103600083015261040681610360565b9050919050565b6000602082019050818103600083015261042681610383565b9050919050565b600060208201905061044260008301846103c9565b92915050565b600081905092915050565b600082825260208201905092915050565b600061046f82610520565b915061047a83610520565b9250827fffffffffffffffffffffffffffffffffffffffffffffffffffffffffffffffff038211156104af576104ae61052a565b5b828201905092915050565b60006104c582610520565b91506104d083610520565b9250828210156104e3576104e261052a565b5b828203905092915050565b60006104f982610500565b9050919050565b600073ffffffffffffffffffffffffffffffffffffffff82169050919050565b6000819050919050565b7f4e487b7100000000000000000000000000000000000000000000000000000000600052601160045260246000fd5b600080fd5b7f4e6f7420656e6f75676820657468657200000000000000000000000000000000600082015250565b7f6661696c656420746f2073656e64204554480000000000000000000000000000600082015250565b7f53656e7400000000000000000000000000000000000000000000000000000000600082015250565b6105e2816104ee565b81146105ed57600080fd5b50565b6105f981610520565b811461060457600080fd5b5056fea264697066735822122064c18e5c24028f3e229ca2db325a99e04c985caefbd2c1d8753ffd6bd39745f364736f6c63430008070033",
					"opcodes": "PUSH1 0x80 PUSH1 0x40 MSTORE CALLVALUE DUP1 ISZERO PUSH2 0x10 JUMPI PUSH1 0x0 DUP1 REVERT JUMPDEST POP PUSH2 0x63D DUP1 PUSH2 0x20 PUSH1 0x0 CODECOPY PUSH1 0x0 RETURN INVALID PUSH1 0x80 PUSH1 0x40 MSTORE PUSH1 0x4 CALLDATASIZE LT PUSH2 0x3F JUMPI PUSH1 0x0 CALLDATALOAD PUSH1 0xE0 SHR DUP1 PUSH4 0x25CAA262 EQ PUSH2 0x44 JUMPI DUP1 PUSH4 0x27E235E3 EQ PUSH2 0x6F JUMPI DUP1 PUSH4 0x2E1A7D4D EQ PUSH2 0xAC JUMPI DUP1 PUSH4 0xD0E30DB0 EQ PUSH2 0xD5 JUMPI JUMPDEST PUSH1 0x0 DUP1 REVERT JUMPDEST CALLVALUE DUP1 ISZERO PUSH2 0x50 JUMPI PUSH1 0x0 DUP1 REVERT JUMPDEST POP PUSH2 0x59 PUSH2 0xDF JUMP JUMPDEST PUSH1 0x40 MLOAD PUSH2 0x66 SWAP2 SWAP1 PUSH2 0x42D JUMP JUMPDEST PUSH1 0x40 MLOAD DUP1 SWAP2 SUB SWAP1 RETURN JUMPDEST CALLVALUE DUP1 ISZERO PUSH2 0x7B JUMPI PUSH1 0x0 DUP1 REVERT JUMPDEST POP PUSH2 0x96 PUSH1 0x4 DUP1 CALLDATASIZE SUB DUP2 ADD SWAP1 PUSH2 0x91 SWAP2 SWAP1 PUSH2 0x306 JUMP JUMPDEST PUSH2 0xE7 JUMP JUMPDEST PUSH1 0x40 MLOAD PUSH2 0xA3 SWAP2 SWAP1 PUSH2 0x42D JUMP JUMPDEST PUSH1 0x40 MLOAD DUP1 SWAP2 SUB SWAP1 RETURN JUMPDEST CALLVALUE DUP1 ISZERO PUSH2 0xB8 JUMPI PUSH1 0x0 DUP1 REVERT JUMPDEST POP PUSH2 0xD3 PUSH1 0x4 DUP1 CALLDATASIZE SUB DUP2 ADD SWAP1 PUSH2 0xCE SWAP2 SWAP1 PUSH2 0x333 JUMP JUMPDEST PUSH2 0xFF JUMP JUMPDEST STOP JUMPDEST PUSH2 0xDD PUSH2 0x285 JUMP JUMPDEST STOP JUMPDEST PUSH1 0x0 SELFBALANCE SWAP1 POP SWAP1 JUMP JUMPDEST PUSH1 0x0 PUSH1 0x20 MSTORE DUP1 PUSH1 0x0 MSTORE PUSH1 0x40 PUSH1 0x0 KECCAK256 PUSH1 0x0 SWAP2 POP SWAP1 POP SLOAD DUP2 JUMP JUMPDEST DUP1 PUSH1 0x0 DUP1 CALLER PUSH20 0xFFFFFFFFFFFFFFFFFFFFFFFFFFFFFFFFFFFFFFFF AND PUSH20 0xFFFFFFFFFFFFFFFFFFFFFFFFFFFFFFFFFFFFFFFF AND DUP2 MSTORE PUSH1 0x20 ADD SWAP1 DUP2 MSTORE PUSH1 0x20 ADD PUSH1 0x0 KECCAK256 SLOAD LT ISZERO PUSH2 0x180 JUMPI PUSH1 0x40 MLOAD PUSH32 0x8C379A000000000000000000000000000000000000000000000000000000000 DUP2 MSTORE PUSH1 0x4 ADD PUSH2 0x177 SWAP1 PUSH2 0x3ED JUMP JUMPDEST PUSH1 0x40 MLOAD DUP1 SWAP2 SUB SWAP1 REVERT JUMPDEST DUP1 PUSH1 0x0 DUP1 CALLER PUSH20 0xFFFFFFFFFFFFFFFFFFFFFFFFFFFFFFFFFFFFFFFF AND PUSH20 0xFFFFFFFFFFFFFFFFFFFFFFFFFFFFFFFFFFFFFFFF AND DUP2 MSTORE PUSH1 0x20 ADD SWAP1 DUP2 MSTORE PUSH1 0x20 ADD PUSH1 0x0 KECCAK256 PUSH1 0x0 DUP3 DUP3 SLOAD PUSH2 0x1CE SWAP2 SWAP1 PUSH2 0x4BA JUMP JUMPDEST SWAP3 POP POP DUP2 SWAP1 SSTORE POP PUSH1 0x0 CALLER PUSH20 0xFFFFFFFFFFFFFFFFFFFFFFFFFFFFFFFFFFFFFFFF AND DUP3 PUSH1 0x40 MLOAD PUSH2 0x1FB SWAP1 PUSH2 0x3D8 JUMP JUMPDEST PUSH1 0x0 PUSH1 0x40 MLOAD DUP1 DUP4 SUB DUP2 DUP6 DUP8 GAS CALL SWAP3 POP POP POP RETURNDATASIZE DUP1 PUSH1 0x0 DUP2 EQ PUSH2 0x238 JUMPI PUSH1 0x40 MLOAD SWAP2 POP PUSH1 0x1F NOT PUSH1 0x3F RETURNDATASIZE ADD AND DUP3 ADD PUSH1 0x40 MSTORE RETURNDATASIZE DUP3 MSTORE RETURNDATASIZE PUSH1 0x0 PUSH1 0x20 DUP5 ADD RETURNDATACOPY PUSH2 0x23D JUMP JUMPDEST PUSH1 0x60 SWAP2 POP JUMPDEST POP POP SWAP1 POP DUP1 PUSH2 0x281 JUMPI PUSH1 0x40 MLOAD PUSH32 0x8C379A000000000000000000000000000000000000000000000000000000000 DUP2 MSTORE PUSH1 0x4 ADD PUSH2 0x278 SWAP1 PUSH2 0x40D JUMP JUMPDEST PUSH1 0x40 MLOAD DUP1 SWAP2 SUB SWAP1 REVERT JUMPDEST POP POP JUMP JUMPDEST CALLVALUE PUSH1 0x0 DUP1 CALLER PUSH20 0xFFFFFFFFFFFFFFFFFFFFFFFFFFFFFFFFFFFFFFFF AND PUSH20 0xFFFFFFFFFFFFFFFFFFFFFFFFFFFFFFFFFFFFFFFF AND DUP2 MSTORE PUSH1 0x20 ADD SWAP1 DUP2 MSTORE PUSH1 0x20 ADD PUSH1 0x0 KECCAK256 PUSH1 0x0 DUP3 DUP3 SLOAD PUSH2 0x2D3 SWAP2 SWAP1 PUSH2 0x464 JUMP JUMPDEST SWAP3 POP POP DUP2 SWAP1 SSTORE POP JUMP JUMPDEST PUSH1 0x0 DUP2 CALLDATALOAD SWAP1 POP PUSH2 0x2EB DUP2 PUSH2 0x5D9 JUMP JUMPDEST SWAP3 SWAP2 POP POP JUMP JUMPDEST PUSH1 0x0 DUP2 CALLDATALOAD SWAP1 POP PUSH2 0x300 DUP2 PUSH2 0x5F0 JUMP JUMPDEST SWAP3 SWAP2 POP POP JUMP JUMPDEST PUSH1 0x0 PUSH1 0x20 DUP3 DUP5 SUB SLT ISZERO PUSH2 0x31C JUMPI PUSH2 0x31B PUSH2 0x559 JUMP JUMPDEST JUMPDEST PUSH1 0x0 PUSH2 0x32A DUP5 DUP3 DUP6 ADD PUSH2 0x2DC JUMP JUMPDEST SWAP2 POP POP SWAP3 SWAP2 POP POP JUMP JUMPDEST PUSH1 0x0 PUSH1 0x20 DUP3 DUP5 SUB SLT ISZERO PUSH2 0x349 JUMPI PUSH2 0x348 PUSH2 0x559 JUMP JUMPDEST JUMPDEST PUSH1 0x0 PUSH2 0x357 DUP5 DUP3 DUP6 ADD PUSH2 0x2F1 JUMP JUMPDEST SWAP2 POP POP SWAP3 SWAP2 POP POP JUMP JUMPDEST PUSH1 0x0 PUSH2 0x36D PUSH1 0x10 DUP4 PUSH2 0x453 JUMP JUMPDEST SWAP2 POP PUSH2 0x378 DUP3 PUSH2 0x55E JUMP JUMPDEST PUSH1 0x20 DUP3 ADD SWAP1 POP SWAP2 SWAP1 POP JUMP JUMPDEST PUSH1 0x0 PUSH2 0x390 PUSH1 0x12 DUP4 PUSH2 0x453 JUMP JUMPDEST SWAP2 POP PUSH2 0x39B DUP3 PUSH2 0x587 JUMP JUMPDEST PUSH1 0x20 DUP3 ADD SWAP1 POP SWAP2 SWAP1 POP JUMP JUMPDEST PUSH1 0x0 PUSH2 0x3B3 PUSH1 0x4 DUP4 PUSH2 0x448 JUMP JUMPDEST SWAP2 POP PUSH2 0x3BE DUP3 PUSH2 0x5B0 JUMP JUMPDEST PUSH1 0x4 DUP3 ADD SWAP1 POP SWAP2 SWAP1 POP JUMP JUMPDEST PUSH2 0x3D2 DUP2 PUSH2 0x520 JUMP JUMPDEST DUP3 MSTORE POP POP JUMP JUMPDEST PUSH1 0x0 PUSH2 0x3E3 DUP3 PUSH2 0x3A6 JUMP JUMPDEST SWAP2 POP DUP2 SWAP1 POP SWAP2 SWAP1 POP JUMP JUMPDEST PUSH1 0x0 PUSH1 0x20 DUP3 ADD SWAP1 POP DUP2 DUP2 SUB PUSH1 0x0 DUP4 ADD MSTORE PUSH2 0x406 DUP2 PUSH2 0x360 JUMP JUMPDEST SWAP1 POP SWAP2 SWAP1 POP JUMP JUMPDEST PUSH1 0x0 PUSH1 0x20 DUP3 ADD SWAP1 POP DUP2 DUP2 SUB PUSH1 0x0 DUP4 ADD MSTORE PUSH2 0x426 DUP2 PUSH2 0x383 JUMP JUMPDEST SWAP1 POP SWAP2 SWAP1 POP JUMP JUMPDEST PUSH1 0x0 PUSH1 0x20 DUP3 ADD SWAP1 POP PUSH2 0x442 PUSH1 0x0 DUP4 ADD DUP5 PUSH2 0x3C9 JUMP JUMPDEST SWAP3 SWAP2 POP POP JUMP JUMPDEST PUSH1 0x0 DUP2 SWAP1 POP SWAP3 SWAP2 POP POP JUMP JUMPDEST PUSH1 0x0 DUP3 DUP3 MSTORE PUSH1 0x20 DUP3 ADD SWAP1 POP SWAP3 SWAP2 POP POP JUMP JUMPDEST PUSH1 0x0 PUSH2 0x46F DUP3 PUSH2 0x520 JUMP JUMPDEST SWAP2 POP PUSH2 0x47A DUP4 PUSH2 0x520 JUMP JUMPDEST SWAP3 POP DUP3 PUSH32 0xFFFFFFFFFFFFFFFFFFFFFFFFFFFFFFFFFFFFFFFFFFFFFFFFFFFFFFFFFFFFFFFF SUB DUP3 GT ISZERO PUSH2 0x4AF JUMPI PUSH2 0x4AE PUSH2 0x52A JUMP JUMPDEST JUMPDEST DUP3 DUP3 ADD SWAP1 POP SWAP3 SWAP2 POP POP JUMP JUMPDEST PUSH1 0x0 PUSH2 0x4C5 DUP3 PUSH2 0x520 JUMP JUMPDEST SWAP2 POP PUSH2 0x4D0 DUP4 PUSH2 0x520 JUMP JUMPDEST SWAP3 POP DUP3 DUP3 LT ISZERO PUSH2 0x4E3 JUMPI PUSH2 0x4E2 PUSH2 0x52A JUMP JUMPDEST JUMPDEST DUP3 DUP3 SUB SWAP1 POP SWAP3 SWAP2 POP POP JUMP JUMPDEST PUSH1 0x0 PUSH2 0x4F9 DUP3 PUSH2 0x500 JUMP JUMPDEST SWAP1 POP SWAP2 SWAP1 POP JUMP JUMPDEST PUSH1 0x0 PUSH20 0xFFFFFFFFFFFFFFFFFFFFFFFFFFFFFFFFFFFFFFFF DUP3 AND SWAP1 POP SWAP2 SWAP1 POP JUMP JUMPDEST PUSH1 0x0 DUP2 SWAP1 POP SWAP2 SWAP1 POP JUMP JUMPDEST PUSH32 0x4E487B7100000000000000000000000000000000000000000000000000000000 PUSH1 0x0 MSTORE PUSH1 0x11 PUSH1 0x4 MSTORE PUSH1 0x24 PUSH1 0x0 REVERT JUMPDEST PUSH1 0x0 DUP1 REVERT JUMPDEST PUSH32 0x4E6F7420656E6F75676820657468657200000000000000000000000000000000 PUSH1 0x0 DUP3 ADD MSTORE POP JUMP JUMPDEST PUSH32 0x6661696C656420746F2073656E64204554480000000000000000000000000000 PUSH1 0x0 DUP3 ADD MSTORE POP JUMP JUMPDEST PUSH32 0x53656E7400000000000000000000000000000000000000000000000000000000 PUSH1 0x0 DUP3 ADD MSTORE POP JUMP JUMPDEST PUSH2 0x5E2 DUP2 PUSH2 0x4EE JUMP JUMPDEST DUP2 EQ PUSH2 0x5ED JUMPI PUSH1 0x0 DUP1 REVERT JUMPDEST POP JUMP JUMPDEST PUSH2 0x5F9 DUP2 PUSH2 0x520 JUMP JUMPDEST DUP2 EQ PUSH2 0x604 JUMPI PUSH1 0x0 DUP1 REVERT JUMPDEST POP JUMP INVALID LOG2 PUSH5 0x6970667358 0x22 SLT KECCAK256 PUSH5 0xC18E5C2402 DUP16 RETURNDATACOPY 0x22 SWAP13 LOG2 0xDB ORIGIN GAS SWAP10 0xE0 0x4C SWAP9 0x5C 0xAE 0xFB 0xD2 0xC1 0xD8 PUSH22 0x3FFD6BD39745F364736F6C6343000807003300000000 "
				},
				"gasEstimates": {
					"creation": {
						"codeDepositCost": "319400",
						"executionCost": "355",
						"totalCost": "319755"
					},
					"external": {
						"balances(address)": "2814",
						"deposit()": "infinite",
						"getBal()": "317",
						"withdraw(uint256)": "infinite"
					}
				},
				"methodIdentifiers": {
					"balances(address)": "27e235e3",
					"deposit()": "d0e30db0",
					"getBal()": "25caa262",
					"withdraw(uint256)": "2e1a7d4d"
				}
			},
			"storageLayout": {
				"storage": [
					{
						"astId": 5,
						"contract": "contracts/Bank/bank.sol:Bank",
						"label": "balances",
						"offset": 0,
						"slot": "0",
						"type": "t_mapping(t_address,t_uint256)"
					}
				],
				"types": {
					"t_address": {
						"encoding": "inplace",
						"label": "address",
						"numberOfBytes": "20"
					},
					"t_mapping(t_address,t_uint256)": {
						"encoding": "mapping",
						"key": "t_address",
						"label": "mapping(address => uint256)",
						"numberOfBytes": "32",
						"value": "t_uint256"
					},
					"t_uint256": {
						"encoding": "inplace",
						"label": "uint256",
						"numberOfBytes": "32"
					}
				}
			},
			"userdoc": {
				"kind": "user",
				"methods": {},
				"version": 1
			}
		}
	}
}